:020000040800F2
:1000000000280020B50200080503000805030008C9
:1000100005030008050300080503000800000000B0
:1000200000000000000000000000000005020008C1
:100030000503000800000000F9010008050300089E
:100040000503000805030008050300080503000870
:100050000503000805030008090300082D03000834
:100060005103000875030008990300080503000800
:100070000503000805030008050300080503000840
:100080000503000805030008050300080503000830
:10009000050300080503000805030008BD03000868
:1000A0000503000805030008050300080503000810
:1000B0000503000805030008050300080503000800
:1000C00005030008050300080503000805030008F0
:1000D00005030008050300080503000805030008E0
:1000E000650400080503000800000000050300087F
:1000F00005030008050300080503000805030008C0
:1001000005030008050300080503000805030008AF
:10011000050300080503000805030008050300089F
:10012000050300080503000805030008050300088F
:1001300010B5054C237833B9044B13B10448AFF321
:1001400000800123237010BD00000020000000008B
:100150007005000808B5034B1BB103490348AFF312
:10016000008008BD000000000400002070050008A9
:1001700080B487B000AF78607B6818331B68023B9F
:100180001B78FB757B681B683B617B6804331B68CD
:10019000FB60FB7D013B032B27D801A252F823F023
:1001A000B1010008BF010008CD010008DD01000811
:1001B0003A69FB6813441A467B681A6015E03A698D
:1001C000FB68D31A1A467B681A600EE03B69FA682E
:1001D00002FB03F31A467B681A6006E0054B5B6876
:1001E000044A43F080535360FFE700BF1C37BD460D
:1001F00080BC704700ED00E080B400AF00BFBD469A
:1002000080BC70471EF0040F0CBFEFF30880EFF3C3
:100210000980FFF7ADBF00BF80B487B000AFF860C2
:10022000B9607A607B68013B032B13D801A252F8B6
:1002300023F000BF45020008490200084D020008F3
:100240005102000801DF05E002DF03E003DF01E007
:1002500004DF00BF03467B617B6918461C37BD463F
:1002600080BC704780B500AF012203210320FFF757
:10027000D3FF03469AB20E4B1A80022203210320B9
:10028000FFF7CAFF03469AB2094B1A8003220321E3
:100290000320FFF7C1FF03469AB2054B1A800422E0
:1002A00003210320FFF7B8FF0023184680BD00BFDD
:1002B0001C0000200D488546AFF300800C480D4916
:1002C0000D4A002302E0D458C4500433C4188C42B1
:1002D000F9D30A4A0A4C002301E013600432A24217
:1002E000FBD300F021F9FFF7BDFFFEE70028002057
:1002F0000000002000000020900500080000002001
:100300005C000020FEE7000080B500AF054B5B6994
:10031000044A43F001035361034B1B68984700BF35
:1003200080BD00BF000401402000002080B500AF68
:10033000054B5B69044A43F002035361034B5B685E
:10034000984700BF80BD00BF00040140200000208E
:1003500080B500AF054B5B69044A43F00403536169
:10036000034B9B68984700BF80BD00BF000401405D
:100370002000002080B500AF054B5B69044A43F0C4
:1003800008035361034BDB68984700BF80BD00BF83
:10039000000401402000002080B500AF054B5B69E0
:1003A000044A43F010035361034B1B69984700BF95
:1003B00080BD00BF000401402000002080B500AFD8
:1003C000264B5B6903F02003002B08D0234B5B69AD
:1003D000224A43F020035361214B5B6998471F4B2E
:1003E0005B6903F04003002B08D01C4B5B691B4A80
:1003F00043F0400353611A4B9B699847174B5B6965
:1004000003F08003002B08D0144B5B69134A43F0C0
:1004100080035361124BDB699847104B5B6903F40F
:100420008073002B08D00D4B5B690C4A43F480733A
:1004300053610B4B1B6A9847084B5B6903F40073CD
:10044000002B08D0054B5B69044A43F400735361E9
:10045000034B5B6A984700BF80BD00BF00040140AA
:100460002000002080B500AF2D4B5B6903F4806352
:10047000002B08D02A4B5B69294A43F480635361FF
:10048000284B9B6A9847264B5B6903F40063002B5B
:1004900008D0234B5B69224A43F400635361214B2C
:1004A000DB6A98471E4B5B6903F48053002B08D02E
:1004B0001B4B5B691A4A43F480535361194B1B6B06
:1004C0009847174B5B6903F40053002B08D0144B7B
:1004D0005B69134A43F400535361124B5B6B9847BB
:1004E0000F4B5B6903F48043002B08D00C4B5B6916
:1004F0000B4A43F4804353610A4B9B6B9847084B6C
:100500005B6903F40043002B08D0054B5B69044A88
:1005100043F400435361034BDB6B984700BF80BD3E
:10052000000401402000002070B500250C4E0D4C49
:10053000A41BA410A54209D100F01AF800250A4E08
:100540000A4CA41BA410A54205D170BD56F8253055
:1005500098470135EEE756F8253098470135F2E720
:100560008805000888050008880500088C05000833
:10057000F8B500BFF8BC08BC9E467047F8B500BF90
:08058000F8BC08BC9E46704760
:040588005501000811
:04058C003101000831
:04000005080002B538
:00000001FF
