:100000000C942A000C9434000C9434000C943400AA
:100010000C9434000C9434000C9434000C94340090
:100020000C9434000C9434000C9434000C94340080
:100030000C9434000C9434000C9434000C94340070
:100040000C9434000C9434000C9434000C94340060
:100050000C94340011241FBECFE5D8E0DEBFCDBF25
:100060000E9436000C94D2000C940000DF93CF93D2
:1000700000D00F92CDB7DEB7EAE3F0E08FEF8083D8
:10008000E7E3F0E01082E8E3F0E081E080831982AA
:10009000E6E3F0E08081882F90E081709070009717
:1000A00061F489818F5F8983E6E3F0E08081882FA6
:1000B00090E0817090700097B9F38981282F30E02B
:1000C0003B832A838A819B818430910509F442C055
:1000D0002A813B812530310584F48A819B818230DD
:1000E000910541F12A813B81233031055CF58A81FC
:1000F0009B8181309105B1F0CBCF2A813B812630A5
:100100003105C1F18A819B81863091055CF12A819C
:100110003B8127303105B1F18A819B81883091057F
:10012000C9F1B6CFABE3B0E0EBE3F0E080818160F2
:100130008C93AECFABE3B0E0EBE3F0E08081826084
:100140008C93A6CFABE3B0E0EBE3F0E0808184607A
:100150008C939ECFABE3B0E0EBE3F0E0808188606E
:100160008C9396CFABE3B0E0EBE3F0E0808180616D
:100170008C938ECFABE3B0E0EBE3F0E08081806264
:100180008C9386CFABE3B0E0EBE3F0E0808180645A
:100190008C937ECFABE3B0E0EBE3F0E0808180684E
:0801A0008C9376CFF894FFCF99
:00000001FF
