:100000000C942A000C943F000C943F000C943F0089
:100010000C943F000C943F000C943F000C943F0064
:100020000C943F000C943F000C943F000C943F0054
:100030000C943F000C943F000C943F000C943F0044
:100040000C943F000C943F000C943F000C943F0034
:100050000C943F0011241FBECFE5D8E0DEBFCDBF1A
:1000600010E0A0E6B0E0E2E6FAE202C005900D92F0
:10007000A03FB107D9F70E94D5140C942F150C940A
:100080000000EF92FF920F931F937B018C0120E001
:1000900030E040E05FE40E94ED0388238CF0C8016B
:1000A000B70120E030E040E05FE40E94B9010E9427
:1000B0004D049B01AC01205030404040504806C0E8
:1000C000C801B7010E944D049B01AC01B901CA01EE
:1000D0001F910F91FF90EF900895A0E0B0E0E3E74B
:1000E000F0E00C94F814DC012B01FA019C919230A1
:1000F00008F439C1EB018881823008F433C19430AF
:1001000069F4843009F02FC111969C91119789816F
:10011000981709F428C1AFE6B0E025C1843009F48E
:1001200021C18230A9F4923009F01DC19A01AD01BC
:1001300088E0EA010990AE01E90109929E0181502F
:10014000C1F7E201898111969C918923818308C1BD
:10015000923009F407C112962D903C901397EB0151
:100160008A819B811496AD90BD90CD90DC901797BD
:10017000EC80FD800E811F819101281B390BB90194
:1001800037FF04C066277727621B730B6032710547
:100190000CF061C0121613066CF537014801062EEB
:1001A00004C096948794779467940A94D2F721E0D8
:1001B00030E040E050E004C0220F331F441F551FC1
:1001C0006A95D2F721503040404050402E213F21C7
:1001D00040235123211531054105510521F021E02E
:1001E00030E040E050E079018A01E628F72808294C
:1001F00019293CC0232BD1F1260E371E35014601AB
:10020000062E04C096948794779467940A94D2F744
:1002100021E030E040E050E004C0220F331F441FD3
:10022000551F6A95D2F721503040404050402A2156
:100230003B214C215D21211531054105510521F05E
:1002400021E030E040E050E059016A01A628B728DB
:10025000C828D9280BC0821593052CF01C01AA24AC
:10026000BB24650103C0EE24FF24870111969C91F5
:10027000D20111968C91981709F445C0992339F051
:10028000A80197012A193B094C095D0906C0A6017E
:1002900095012E193F09400B510B57FD08C01182E3
:1002A0003382228224833583468357831DC081E0B5
:1002B00081833382228288279927DC01821B930B5A
:1002C000A40BB50B84839583A683B7830DC0220F3F
:1002D000331F441F551F24833583468357838281F0
:1002E000938101979383828324813581468157814D
:1002F000DA01C9010197A109B1098F5F9F4FAF4F83
:10030000BF4328F30BC0918333822282EA0CFB1C8B
:100310000C1D1D1DE482F5820683178383E0808314
:10032000248135814681578157FF1AC0C901AA2708
:1003300097FDA095BA2F81709070A070B0705695FF
:10034000479537952795822B932BA42BB52B848328
:100350009583A683B7838281938101969383828359
:10036000DF0101C0D201CD01CDB7DEB7E2E10C94CF
:100370001415A0E2B0E0EFEBF1E00C9404156983F2
:100380007A838B839C832D833E834F835887E9E058
:10039000EE2EF12CEC0EFD1ECE010196B7010E944F
:1003A00076058E010F5E1F4FCE010596B8010E94A3
:1003B00076058A8991E089278A8BC701B801AE0149
:1003C000475E5F4F0E946D000E94A104A096E6E088
:1003D0000C942015A0E2B0E0E0EFF1E00C940415DD
:1003E00069837A838B839C832D833E834F835887D5
:1003F000F9E0EF2EF12CEC0EFD1ECE010196B701B7
:100400000E9476058E010F5E1F4FCE010596B80142
:100410000E947605C701B801AE01475E5F4F0E949A
:100420006D000E94A104A096E6E00C942015A0E2C5
:10043000B0E0EDE1F2E00C94F81469837A838B83E9
:100440009C832D833E834F835887CE010196BE0146
:10045000675F7F4F0E947605CE010596BE016F5EF5
:100460007F4F0E9476059985923088F08989823085
:10047000C8F0943019F4823051F404C0843029F467
:10048000923081F48FE690E0C6C0923049F420E0CB
:100490009A858A89981321E02A87CE010996BBC0E4
:1004A000823049F420E09A858A89981321E02A8BCA
:1004B000CE014196B0C02D843E844F8458886D880B
:1004C0007E888F88988CEE24FF248701AA24BB2481
:1004D000650140E050E060E070E0E0E0F0E0C10184
:1004E00081709070892BE9F0E60CF71C081D191D2E
:1004F0009A01AB012A0D3B1D4C1D5D1D80E090E073
:10050000A0E0B0E0E614F7040805190520F481E046
:1005100090E0A0E0B0E0BA01A901480F591F6A1F9E
:100520007B1FAA0CBB1CCC1CDD1C97FE08C081E005
:1005300090E0A0E0B0E0A82AB92ACA2ADB2A3196C6
:10054000E032F10549F0660C771C881C991C569422
:10055000479437942794C3CFFA85EA892B893C893D
:100560008B859C85280F391F2E5F3F4F17C0CA010E
:1005700081709070892B61F016950795F794E79438
:1005800080E090E0A0E0B0E8E82AF92A0A2B1B2BD3
:1005900076956795579547952F5F3F4F77FDE7CF46
:1005A0000CC0440F551F661F771F17FD4160EE0CEE
:1005B000FF1C001F111F21503040403090E05907B0
:1005C00090E0690790E4790760F32B8F3C8FDB01A3
:1005D000CA018F779070A070B07080349105A1052A
:1005E000B10561F447FD0AC0E114F10401051105EC
:1005F00029F0405C5F4F6F4F7F4F40781A8EFE1797
:1006000011F081E08A8F4D8F5E8F6F8F78A383E02A
:10061000898FCE0149960E94A104A096E2E10C9434
:100620001415A8E1B0E0E7E1F3E00C94001569834C
:100630007A838B839C832D833E834F835887B9E0D5
:10064000EB2EF12CEC0EFD1ECE010196B7010E949F
:1006500076058E010F5E1F4FCE010596B8010E94F0
:1006600076052985223008F47EC03989323010F4AD
:10067000B8017CC08A859A8989278A87243011F03D
:10068000223031F4231709F06EC06FE670E06EC0BF
:10069000343039F41D861E861F86188A1C861B86F8
:1006A00004C0323021F484E08987B7015FC02B8514
:1006B0003C858B899C89281B390B3C872B87ED84D3
:1006C000FE840F851889AD88BE88CF88D88CEA143F
:1006D000FB040C051D0540F4EE0CFF1C001F111F50
:1006E000215030403C872B8720E030E040E050E054
:1006F00080E090E0A0E0B0E460E070E0EA14FB0489
:100700000C051D0540F0282B392B4A2B5B2BEA18D2
:10071000FB080C091D09B695A79597958795EE0CD2
:10072000FF1C001F111F6F5F7F4F6F31710531F785
:10073000DA01C9018F779070A070B0708034910594
:10074000A105B10561F427FD0AC0E114F10401051A
:10075000110529F0205C3F4F4F4F5F4F20782D87C8
:100760003E874F87588BBE01675F7F4FCB010E944A
:10077000A1046896EAE00C941C15A8E1B0E0E3EC53
:10078000F3E00C94041569837A838B839C832D8317
:100790003E834F83588789E0E82EF12CEC0EFD1E36
:1007A000CE010196B7010E9476058E010F5E1F4FA4
:1007B000CE010596B8010E9476058985823040F009
:1007C0008989823028F0C701B8010E94EE0501C076
:1007D0008FEF6896E6E00C942015A8E1B0E0E3EF17
:1007E000F3E00C94041569837A838B839C832D83B7
:1007F0003E834F83588789E0E82EF12CEC0EFD1ED6
:10080000CE010196B7010E9476058E010F5E1F4F43
:10081000CE010596B8010E9476058985823040F0A8
:100820008989823028F0C701B8010E94EE0501C015
:100830008FEF6896E6E00C942015A8E1B0E0E3E2C3
:10084000F4E00C94041569837A838B839C832D8355
:100850003E834F83588789E0E82EF12CEC0EFD1E75
:10086000CE010196B7010E9476058E010F5E1F4FE3
:10087000CE010596B8010E9476058985823040F048
:100880008989823028F0C701B8010E94EE0501C0B5
:1008900081E06896E6E00C942015ACE0B0E0E3E57A
:1008A000F4E00C94081569837A838B839C83CE01D2
:1008B0000196BE016B5F7F4F0E9476058D8182306D
:1008C00061F1823050F1843021F48E81882351F11E
:1008D0002EC02F81388537FD20C06E812F31310524
:1008E0001CF06623F9F023C08EE190E0821B930B8D
:1008F00029853A854B855C8504C056954795379583
:1009000027958A95D2F76623B1F05095409530959A
:1009100021953F4F4F4F5F4F0EC020E030E040E049
:1009200050E009C02FEF3FEF4FEF5FE704C020E03A
:1009300030E040E050E8B901CA012C96E2E00C94A6
:100940002415DF92EF92FF920F931F93FC01E48036
:10095000F58006811781D1808081823048F480E063
:1009600090E0A0E1B0E0E82AF92A0A2B1B2BA5C0F1
:10097000843009F49FC0823021F4EE24FF248701E3
:1009800005C0E114F1040105110519F4E0E0F0E0FF
:1009900096C0628173819FEF623879070CF05BC06B
:1009A00022E83FEF261B370B2A3131052CF020E0DF
:1009B00030E040E050E02AC0B801A701022E04C098
:1009C00076956795579547950A94D2F781E090E020
:1009D000A0E0B0E004C0880F991FAA1FBB1F2A9592
:1009E000D2F70197A109B1098E219F21A023B1233C
:1009F0000097A105B10521F081E090E0A0E0B0E012
:100A00009A01AB01282B392B4A2B5B2BDA01C90148
:100A10008F779070A070B07080349105A105B105FA
:100A200039F427FF09C0205C3F4F4F4F5F4F04C090
:100A3000215C3F4F4F4F5F4FE0E0F0E02030A0E0FF
:100A40003A07A0E04A07A0E45A0710F0E1E0F0E01E
:100A500079018A0127C06038710564F5FB01E1580E
:100A6000FF4FD801C7018F779070A070B0708034AD
:100A70009105A105B10539F4E7FE0DC080E490E0D1
:100A8000A0E0B0E004C08FE390E0A0E0B0E0E80EAA
:100A9000F91E0A1F1B1F17FF05C016950795F7942F
:100AA000E794319687E016950795F794E7948A9531
:100AB000D1F705C0EE24FF248701EFEFF0E06E2FA1
:100AC000679566276795902F9F77D794DD24D794F5
:100AD0008E2F8695492F462B582F5D29B701CA01C5
:100AE0001F910F91FF90EF90DF900895FC01DB01C3
:100AF000408151812281622F6F7770E0221F22276F
:100B0000221F9381892F880F822B282F30E0991F75
:100B10009927991F11969C93119721153105A9F5D5
:100B2000411551056105710511F482E037C082E875
:100B30009FEF13969C938E9312979A01AB0167E0F7
:100B4000220F331F441F551F6A95D1F783E08C9302
:100B50000DC0220F331F441F551F12968D919C917B
:100B60001397019713969C938E931297203080E0F1
:100B7000380780E0480780E4580758F314962D930F
:100B80003D934D935C93179708952F3F310579F46A
:100B9000411551056105710519F484E08C930895A0
:100BA00064FF03C081E08C9312C01C9210C02F57C9
:100BB000304013963C932E93129783E08C9387E0FA
:100BC000440F551F661F771F8A95D1F770641496DE
:100BD0004D935D936D937C93179708951F93DC015C
:100BE000FB019C91923008F447C08081823008F468
:100BF00043C0943051F411961C91843099F5818151
:100C0000682F70E0611B71093FC0843021F0923081
:100C100031F48230B9F18181882389F12DC0119698
:100C20001C9111978230F1F081811817D9F4129636
:100C30002D913C911397828193818217930794F0B1
:100C400028173907BCF014968D919D910D90BC9199
:100C5000A02D2481358146815781281739074A07FD
:100C60005B0718F4112341F00AC082179307A40709
:100C7000B50740F4112319F061E070E005C06FEF93
:100C80007FEF02C060E070E0CB011F910895DF9319
:100C9000CF9300D000D0CDB7DEB789836A834B8372
:100CA0008A81883018F081E08C83D8C089818823BC
:100CB00091F58B818130A1F4AAE3B0E0EAE3F0E0A2
:100CC0008081482F8A81282F30E081E090E0022E39
:100CD00002C0880F991F0A94E2F7842B8C93BDC041
:100CE0008B818823A9F4AAE3B0E0EAE3F0E08081F5
:100CF000482F8A81282F30E081E090E0022E02C048
:100D0000880F991F0A94E2F7809584238C93A5C0DD
:100D100081E08C83A3C08981813091F58B81813002
:100D2000A1F4A7E3B0E0E7E3F0E08081482F8A81F7
:100D3000282F30E081E090E0022E02C0880F991F3A
:100D40000A94E2F7842B8C9388C08B818823A9F4C2
:100D5000A7E3B0E0E7E3F0E08081482F8A81282F05
:100D600030E081E090E0022E02C0880F991F0A94C3
:100D7000E2F7809584238C9370C081E08C836EC0F1
:100D80008981823091F58B818130A1F4A4E3B0E0B8
:100D9000E4E3F0E08081482F8A81282F30E081E071
:100DA00090E0022E02C0880F991F0A94E2F7842B6C
:100DB0008C9353C08B818823A9F4A4E3B0E0E4E3CF
:100DC000F0E08081482F8A81282F30E081E090E098
:100DD000022E02C0880F991F0A94E2F7809584239F
:100DE0008C933BC081E08C8339C08981833091F53D
:100DF0008B818130A1F4A1E3B0E0E1E3F0E08081F8
:100E0000482F8A81282F30E081E090E0022E02C036
:100E1000880F991F0A94E2F7842B8C931EC08B8154
:100E20008823A9F4A1E3B0E0E1E3F0E08081482F5A
:100E30008A81282F30E081E090E0022E02C0880FE6
:100E4000991F0A94E2F7809584238C9306C081E071
:100E50008C8304C081E08C8301C01C828C810F9044
:100E60000F900F900F90CF91DF910895DF93CF9364
:100E700000D000D0CDB7DEB789836A834B838A81E7
:100E8000883018F081E08C83D8C08981882391F55F
:100E90008B818130A1F4ABE3B0E0EBE3F0E0808143
:100EA000482F8A81282F30E081E090E0022E02C096
:100EB000880F991F0A94E2F7842B8C93BDC08B8115
:100EC0008823A9F4ABE3B0E0EBE3F0E08081482FA6
:100ED0008A81282F30E081E090E0022E02C0880F46
:100EE000991F0A94E2F7809584238C93A5C081E032
:100EF0008C83A3C08981813091F58B818130A1F4ED
:100F0000A8E3B0E0E8E3F0E08081482F8A81282F51
:100F100030E081E090E0022E02C0880F991F0A9411
:100F2000E2F7842B8C9388C08B818823A9F4A8E3F3
:100F3000B0E0E8E3F0E08081482F8A81282F30E09C
:100F400081E090E0022E02C0880F991F0A94E2F718
:100F5000809584238C9370C081E08C836EC08981DE
:100F6000823091F58B818130A1F4A5E3B0E0E5E317
:100F7000F0E08081482F8A81282F30E081E090E0E6
:100F8000022E02C0880F991F0A94E2F7842B8C93DB
:100F900053C08B818823A9F4A5E3B0E0E5E3F0E03A
:100FA0008081482F8A81282F30E081E090E0022E56
:100FB00002C0880F991F0A94E2F7809584238C93CE
:100FC0003BC081E08C8339C08981833091F58B816E
:100FD0008130A1F4A2E3B0E0E2E3F0E08081482FA9
:100FE0008A81282F30E081E090E0022E02C0880F35
:100FF000991F0A94E2F7842B8C931EC08B8188235F
:10100000A9F4A2E3B0E0E2E3F0E08081482F8A8116
:10101000282F30E081E090E0022E02C0880F991F57
:101020000A94E2F7809584238C9306C081E08C8338
:1010300004C081E08C8301C01C828C810F900F90D2
:101040000F900F90CF91DF910895DF93CF9300D051
:1010500000D00F92CDB7DEB789836A835C834B8360
:101060008A81883018F041E04D8360C089818823EF
:10107000A1F4E9E3F0E08081282F30E08A81882F15
:1010800090E0A90102C0559547958A95E2F7CA01FB
:101090008170EB81FC81808348C089818130A1F41B
:1010A000E6E3F0E08081282F30E08A81882F90E00D
:1010B000A90102C0559547958A95E2F7CA0181704A
:1010C000EB81FC81808331C089818230A1F4E3E32C
:1010D000F0E08081282F30E08A81882F90E0A901FC
:1010E00002C0559547958A95E2F7CA018170EB8158
:1010F000FC8180831AC089818330A1F4E0E3F0E0B1
:101100008081282F30E08A81882F90E0A90102C0D9
:10111000559547958A95E2F7CA018170EB81FC816C
:10112000808303C051E05D8301C01D828D810F90DB
:101130000F900F900F900F90CF91DF910895DF9354
:10114000CF9300D000D00F92CDB7DEB789836A83EA
:101150008A81813031F08A81813019F021E02D833C
:1011600053C08981282F30E03C832B838B819C8165
:101170008130910509F12B813C81223031052CF41D
:101180008B819C81009761F03BC02B813C81223098
:101190003105F1F08B819C818330910529F130C0BC
:1011A0008A81813029F4EAE3F0E08FEF80832BC05D
:1011B000EAE3F0E0108227C08A81813029F4E7E376
:1011C000F0E08FEF80831FC0E7E3F0E010821BC0E8
:1011D0008A81813029F4E4E3F0E08FEF808313C04B
:1011E000E4E3F0E010820FC08A81813029F4E1E36A
:1011F000F0E08FEF808307C0E1E3F0E0108203C0EE
:1012000091E09D8301C01D828D810F900F900F9002
:101210000F900F90CF91DF910895DF93CF9300D07F
:1012200000D00F92CDB7DEB789836A838A8181307F
:1012300031F08A81882319F021E02D8353C0898100
:10124000282F30E03C832B838B819C81813091055A
:1012500009F12B813C81223031052CF48B819C815A
:10126000009761F03BC02B813C8122303105F1F0C9
:101270008B819C818330910529F130C08A81813036
:1012800029F4EBE3F0E08FEF80832BC0EBE3F0E099
:10129000108227C08A81813029F4E8E3F0E08FEFE3
:1012A00080831FC0E8E3F0E010821BC08A81813098
:1012B00029F4E5E3F0E08FEF808313C0E5E3F0E08D
:1012C00010820FC08A81813029F4E2E3F0E08FEFD1
:1012D000808307C0E2E3F0E0108203C091E09D83C9
:1012E00001C01D828D810F900F900F900F900F9075
:1012F000CF91DF910895DF93CF9300D00F92CDB7B8
:10130000DEB789836A838A81883018F081E08B8315
:1013100060C089818823A1F4ABE3B0E0EBE3F0E0A7
:101320008081482F8A81282F30E081E090E0022ED2
:1013300002C0880F991F0A94E2F784278C9348C053
:1013400089818130A1F4A8E3B0E0E8E3F0E0808196
:10135000482F8A81282F30E081E090E0022E02C0E1
:10136000880F991F0A94E2F784278C9331C08981F2
:101370008230A1F4A5E3B0E0E5E3F0E08081482FFE
:101380008A81282F30E081E090E0022E02C0880F91
:10139000991F0A94E2F784278C931AC089818330BD
:1013A000A1F4A2E3B0E0E2E3F0E08081482F8A817B
:1013B000282F30E081E090E0022E02C0880F991FB4
:1013C0000A94E2F784278C9303C081E08B8301C0E9
:1013D0001B828B810F900F900F90CF91DF9108951A
:1013E000DF93CF9300D0CDB7DEB71A8219821A826D
:1013F0001982A3C289819A81880F991F880F991F2A
:10140000FC01E958FF4F8081882309F09BC0898146
:101410009A81880F991F0196880F991FFC01E9583E
:10142000FF4F80818130E9F4AAE3B0E0EAE3F0E025
:101430008081482F89819A81880F991F880F991F71
:10144000FC01E858FF4F8081282F30E081E090E0D8
:10145000022E02C0880F991F0A94E2F7842B8C9306
:1014600067C2AAE3B0E0EAE3F0E08081482F898117
:101470009A81880F991F880F991FFC01E858FF4F28
:101480008081282F30E081E090E0022E02C0880F9A
:10149000991F0A94E2F7809584238C9389819A811D
:1014A000880F991F880F991FFC01E658FF4F808114
:1014B0008130E9F4ABE3B0E0EBE3F0E08081482F6A
:1014C00089819A81880F991F880F991FFC01E8581C
:1014D000FF4F8081282F30E081E090E0022E02C093
:1014E000880F991F0A94E2F7842B8C9321C289817B
:1014F0009A81880F991F880F991FFC01E658FF4FAA
:101500008081882309F014C2ABE3B0E0EBE3F0E0A4
:101510008081482F89819A81880F991F880F991F90
:10152000FC01E858FF4F8081282F30E081E090E0F7
:10153000022E02C0880F991F0A94E2F78095842337
:101540008C93F6C189819A81880F991F880F991F02
:10155000FC01E958FF4F8081813009F09BC08981EF
:101560009A81880F991F0196880F991FFC01E958ED
:10157000FF4F80818130E9F4A7E3B0E0E7E3F0E0DA
:101580008081482F89819A81880F991F880F991F20
:10159000FC01E858FF4F8081282F30E081E090E087
:1015A000022E02C0880F991F0A94E2F7842B8C93B5
:1015B000BFC1A7E3B0E0E7E3F0E08081482F898175
:1015C0009A81880F991F880F991FFC01E858FF4FD7
:1015D0008081282F30E081E090E0022E02C0880F49
:1015E000991F0A94E2F7809584238C9389819A81CC
:1015F000880F991F880F991FFC01E658FF4F8081C3
:101600008130E9F4A8E3B0E0E8E3F0E08081482F1E
:1016100089819A81880F991F880F991FFC01E858CA
:10162000FF4F8081282F30E081E090E0022E02C041
:10163000880F991F0A94E2F7842B8C9379C18981D2
:101640009A81880F991F880F991FFC01E658FF4F58
:101650008081882309F06CC1ABE3B0E0EBE3F0E0FC
:101660008081482F89819A81880F991F880F991F3F
:10167000FC01E858FF4F8081282F30E081E090E0A6
:10168000022E02C0880F991F0A94E2F780958423E6
:101690008C934EC189819A81880F991F880F991F59
:1016A000FC01E958FF4F8081823009F09BC089819D
:1016B0009A81880F991F0196880F991FFC01E9589C
:1016C000FF4F80818130E9F4A4E3B0E0E4E3F0E08F
:1016D0008081482F89819A81880F991F880F991FCF
:1016E000FC01E858FF4F8081282F30E081E090E036
:1016F000022E02C0880F991F0A94E2F7842B8C9364
:1017000017C1A4E3B0E0E4E3F0E08081482F8981D1
:101710009A81880F991F880F991FFC01E858FF4F85
:101720008081282F30E081E090E0022E02C0880FF7
:10173000991F0A94E2F7809584238C9389819A817A
:10174000880F991F880F991FFC01E658FF4F808171
:101750008130E9F4A5E3B0E0E5E3F0E08081482FD3
:1017600089819A81880F991F880F991FFC01E85879
:10177000FF4F8081282F30E081E090E0022E02C0F0
:10178000880F991F0A94E2F7842B8C93D1C089812A
:101790009A81880F991F880F991FFC01E658FF4F07
:1017A0008081882309F0C4C0ABE3B0E0EBE3F0E054
:1017B0008081482F89819A81880F991F880F991FEE
:1017C000FC01E858FF4F8081282F30E081E090E055
:1017D000022E02C0880F991F0A94E2F78095842395
:1017E0008C93A6C089819A81880F991F880F991FB1
:1017F000FC01E958FF4F8081833009F099C089814D
:101800009A81880F991F0196880F991FFC01E9584A
:10181000FF4F80818130E9F4A1E3B0E0E1E3F0E043
:101820008081482F89819A81880F991F880F991F7D
:10183000FC01E858FF4F8081282F30E081E090E0E4
:10184000022E02C0880F991F0A94E2F7842B8C9312
:101850006FC0A1E3B0E0E1E3F0E08081482F89812F
:101860009A81880F991F880F991FFC01E858FF4F34
:101870008081282F30E081E090E0022E02C0880FA6
:10188000991F0A94E2F7809584238C9389819A8129
:10189000880F991F880F991FFC01E658FF4F808120
:1018A0008130E9F4A2E3B0E0E2E3F0E08081482F88
:1018B00089819A81880F991F880F991FFC01E85828
:1018C000FF4F8081282F30E081E090E0022E02C09F
:1018D000880F991F0A94E2F7842B8C9329C0898181
:1018E0009A81880F991F880F991FFC01E658FF4FB6
:1018F00080818823E9F4ABE3B0E0EBE3F0E08081A2
:10190000482F89819A81880F991F880F991FFC01A0
:10191000E858FF4F8081282F30E081E090E0022ED0
:1019200002C0880F991F0A94E2F7809584238C9354
:1019300089819A8101969A83898389819A818831E4
:1019400091050CF457CD80E00F900F90CF91DF916F
:101950000895DF93CF93CDB7DEB7E0970FB6F89435
:10196000DEBF0FBECDBF81E063E041E00E943607DD
:1019700080E090E0A0E2B1E48DA79EA7AFA7B8AB4E
:101980006DA57EA58FA598A92BEA3AEA4AEA50E40C
:101990000E941702DC01CB0189A79AA7ABA7BCA7BD
:1019A00069A57AA58BA59CA520E030E040E85FE31F
:1019B0000E941D0488231CF481E088A791C069A5BA
:1019C0007AA58BA59CA520E030E04FE753E40E9468
:1019D000BD0318160CF07BC06DA57EA58FA598A938
:1019E00020E030E04AE754E40E941103DC01CB011F
:1019F0008CA39DA3AEA3BFA36CA17DA18EA19FA12B
:101A000020E030E04AE755E40E941702DC01CB01F8
:101A100088A399A3AAA3BBA368A179A18AA19BA12A
:101A200020E030E040E85FE30E941D0488232CF4AE
:101A300081E090E09F8F8E8F3FC068A179A18AA13D
:101A40009BA120E03FEF4FE757E40E94BD0318162B
:101A50004CF56CA17DA18EA19FA120E030E040E279
:101A600051E40E941702DC01CB01BC01CD010E94B0
:101A70004100DC01CB019F8F8E8F0FC080E991E088
:101A80009D8F8C8F8C8D9D8D0197F1F79D8F8C8F05
:101A90008E8D9F8D01979F8F8E8F8E8D9F8D00973E
:101AA00069F724C068A179A18AA19BA10E94410085
:101AB000DC01CB019F8F8E8F8E8D9F8D9B8F8A8FA8
:101AC0008A8D9B8D0197F1F79B8F8A8F0FC069A537
:101AD0007AA58BA59CA50E944100DC01CB0188A7BB
:101AE00088A5898F898D8A95F1F7898F81E063E0D8
:101AF00040E00E94360780E090E0AAEFB4E48D8BCE
:101B00009E8BAF8BB88F6D897E898F89988D2BEADC
:101B10003AEA4AEA50E40E941702DC01CB01898BC1
:101B20009A8BAB8BBC8B69897A898B899C8920E0E5
:101B300030E040E85FE30E941D0488231CF481E04C
:101B4000888B91C069897A898B899C8920E030E0F3
:101B50004FE753E40E94BD0318160CF07BC06D895B
:101B60007E898F89988D20E030E04AE754E40E9416
:101B70001103DC01CB018C879D87AE87BF876C8505
:101B80007D858E859F8520E030E04AE755E40E9400
:101B90001702DC01CB0188879987AA87BB876885F4
:101BA00079858A859B8520E030E040E85FE30E94EC
:101BB0001D0488232CF481E090E09F838E833FC036
:101BC000688579858A859B8520E03FEF4FE757E45C
:101BD0000E94BD0318164CF56C857D858E859F850A
:101BE00020E030E040E251E40E941702DC01CB012A
:101BF000BC01CD010E944100DC01CB019F838E839B
:101C00000FC080E991E09D838C838C819D81019739
:101C1000F1F79D838C838E819F8101979F838E83B3
:101C20008E819F81009769F724C0688579858A85B0
:101C30009B850E944100DC01CB019F838E838E81B6
:101C40009F819B838A838A819B810197F1F79B8384
:101C50008A830FC069897A898B899C890E94410097
:101C6000DC01CB01888B8889898389818A95F1F78A
:101C7000898380E0E0960FB6F894DEBF0FBECDBF3B
:101C8000CF91DF910895DF93CF93CDB7DEB782E098
:101C90000E94E30E88E20E94E30E8EE00E94E30EB3
:101CA00086E00E94E30E81E00E94E30E80E0CF9187
:101CB000DF910895DF93CF93CDB7DEB72E970FB6A0
:101CC000F894DEBF0FBECDBF81E00E94E30E80E03E
:101CD00090E0A0E0B0E48B879C87AD87BE876B85E2
:101CE0007C858D859E8520E030E04AE755E40E94A2
:101CF0001702DC01CB018F839887A987BA876F8190
:101D0000788589859A8520E030E040E85FE30E948D
:101D10001D0488232CF481E090E09E838D833FC0D6
:101D20006F81788589859A8520E03FEF4FE757E4FA
:101D30000E94BD0318164CF56B857C858D859E85AC
:101D400020E030E040E251E40E941702DC01CB01C8
:101D5000BC01CD010E944100DC01CB019E838D833B
:101D60000FC080E991E09C838B838B819C810197DC
:101D7000F1F79C838B838D819E8101979E838D8358
:101D80008D819E81009769F714C06F817885898560
:101D90009A850E944100DC01CB019E838D838D8159
:101DA0009E819A83898389819A810197F1F79A8329
:101DB000898380E02E960FB6F894DEBF0FBECDBFAC
:101DC000CF91DF910895DF93CF930F92CDB7DEB718
:101DD000898381E061E040E00E94360781E062E0B3
:101DE00040E00E9436078981882334F480E067E070
:101DF00041E00E94360705C080E067E040E00E94B5
:101E0000360789818295869586958370882F90E024
:101E100081709070882331F080E066E041E00E949C
:101E2000360705C080E066E040E00E943607898101
:101E3000829586958770882F90E0817090708823B6
:101E400031F080E065E041E00E94360705C080E0A7
:101E500065E040E00E943607898182958F70882F67
:101E600090E081709070882331F080E064E041E080
:101E70000E94360705C080E064E040E00E9436071B
:101E80000E94A90C8981869586958695882F90E079
:101E900081709070882331F080E067E041E00E941B
:101EA000360705C080E067E040E00E943607898180
:101EB00086958695882F90E081709070882331F008
:101EC00080E066E041E00E94360705C080E066E001
:101ED00040E00E94360789818695882F90E08170C6
:101EE0009070882331F080E065E041E00E94360781
:101EF00005C080E065E040E00E9436078981882FB8
:101F000090E081709070882331F080E064E041E0DF
:101F10000E94360705C080E064E040E00E9436077A
:101F20000E94A90C80E00F90CF91DF910895DF937C
:101F3000CF930F92CDB7DEB7898381E061E041E0B6
:101F40000E94360781E062E040E00E943607898106
:101F5000882334F480E067E041E00E94360705C042
:101F600080E067E040E00E9436078981829586958F
:101F700086958370882F90E081709070882331F06F
:101F800080E066E041E00E94360705C080E066E040
:101F900040E00E9436078981829586958770882F58
:101FA00090E081709070882331F080E065E041E03E
:101FB0000E94360705C080E065E040E00E943607D9
:101FC000898182958F70882F90E08170907088232E
:101FD00031F080E064E041E00E94360705C080E017
:101FE00064E040E00E9436070E94A90C8981869532
:101FF00086958695882F90E081709070882331F0C7
:1020000080E067E041E00E94360705C080E067E0BD
:1020100040E00E943607898186958695882F90E05A
:1020200081709070882331F080E066E041E00E948A
:10203000360705C080E066E040E00E9436078981EF
:102040008695882F90E081709070882331F080E031
:1020500065E041E00E94360705C080E065E040E0B1
:102060000E9436078981882F90E0817090708823C4
:1020700031F080E064E041E00E94360705C080E076
:1020800064E040E00E9436070E94A90C80E00F90B7
:10209000CF91DF910895DF93CF9300D00F92CDB70A
:1020A000DEB79B838A8381E061E041E00E943607CE
:1020B00081E062E040E00E94360719820EC089810B
:1020C000282F30E08A819B81FC01E20FF31F808181
:1020D0000E94970F89818F5F89838981282F30E043
:1020E0008A819B81FC01E20FF31F8081882339F7ED
:1020F00080E00F900F900F90CF91DF910895DF93C4
:10210000CF9300D000D0CDB7DEB79A8389836B839D
:102110004C8381E061E041E00E94360781E062E0AB
:1021200040E00E9436078B816C810E946A1389818E
:102130009A810E944B1080E00F900F900F900F90AB
:10214000CF91DF910895DF93CF93CDB7DEB72E9770
:102150000FB6F894DEBF0FBECDBF9E878D8781E09E
:1021600061E041E00E94360781E062E040E00E94C9
:1021700036071A8219828D859E85009711F580E3B6
:102180000E94970F39C08A81E82FF0E08D859E85E7
:102190002AE030E0B9010E94E414282F205DCE012E
:1021A0000396E80FF91F20838D859E852AE030E095
:1021B000B9010E94E414CB019E878D878A818F5FCD
:1021C0008A838D859E850097F1F68A81898311C067
:1021D0008981882F90E09C0121503040CE010396E8
:1021E000FC01E20FF31F80810E94970F89818150CB
:1021F00089838981882361F780E02E960FB6F89451
:10220000DEBF0FBECDBFCF91DF910895DF93CF9397
:10221000CDB7DEB7A3970FB6F894DEBF0FBECDBF24
:1022200098A38F8F69A34AA381E061E041E00E94F7
:10223000360781E062E040E00E94360789A18130E4
:1022400009F076C080E80E94E30E80E090E0A0E80C
:10225000BFE3898F9A8FAB8FBC8F698D7A8D8B8D01
:102260009C8D20E030E04AE755E40E941702DC0133
:10227000CB018D8B9E8BAF8BB88F6D897E898F89BB
:10228000988D20E030E040E85FE30E941D04882341
:102290002CF481E090E09C8B8B8B3FC06D897E8914
:1022A0008F89988D20E03FEF4FE757E40E94BD03F0
:1022B00018164CF5698D7A8D8B8D9C8D20E030E061
:1022C00040E251E40E941702DC01CB01BC01CD01C8
:1022D0000E944100DC01CB019C8B8B8B0FC080E9FD
:1022E00091E09A8B898B89899A890197F1F79A8B6A
:1022F000898B8B899C8901979C8B8B8B8B899C8983
:10230000009769F792C06D897E898F89988D0E94A8
:102310004100DC01CB019C8B8B8B8B899C89988B3A
:102320008F878F8598890197F1F7988B8F877DC06C
:1023300089A1823009F076C080EC0E94E30E80E033
:1023400090E0A0E2B1E48B879C87AD87BE876B8568
:102350007C858D859E8520E030E04AE755E40E942B
:102360001702DC01CB018F839887A987BA876F8119
:10237000788589859A8520E030E040E85FE30E9417
:102380001D0488232CF481E090E09E838D833FC060
:102390006F81788589859A8520E03FEF4FE757E484
:1023A0000E94BD0318164CF56B857C858D859E8536
:1023B00020E030E040E251E40E941702DC01CB0152
:1023C000BC01CD010E944100DC01CB019E838D83C5
:1023D0000FC080E991E09C838B838B819C81019766
:1023E000F1F79C838B838D819E8101979E838D83E2
:1023F0008D819E81009769F718C06F8178858985E6
:102400009A850E944100DC01CB019E838D838D81E2
:102410009E819A83898389819A810197F1F79A83B2
:10242000898303C081E08BA31AC081E090E09E8F76
:102430008D8F08C08CE10E94E30E8D8D9E8D0196DC
:102440009E8F8D8F8AA1282F30E08D8D9E8D28172D
:10245000390784F78F8D98A10E94A3101BA28BA12E
:10246000A3960FB6F894DEBF0FBECDBFCF91DF911C
:102470000895DF93CF93CDB7DEB7A2970FB6F89448
:10248000DEBF0FBECDBF8F8F68A349A381E061E09F
:1024900041E00E94360781E062E040E00E9436079A
:1024A00088A1813009F076C080E80E94E30E80E0C8
:1024B00090E0A0E8BFE3898F9A8FAB8FBC8F698DC6
:1024C0007A8D8B8D9C8D20E030E04AE755E40E94A8
:1024D0001702DC01CB018D8B9E8BAF8BB88F6D8982
:1024E0007E898F89988D20E030E040E85FE30E948C
:1024F0001D0488232CF481E090E09C8B8B8B3FC0E3
:102500006D897E898F89988D20E03FEF4FE757E4F2
:102510000E94BD0318164CF5698D7A8D8B8D9C8DAC
:1025200020E030E040E251E40E941702DC01CB01E0
:10253000BC01CD010E944100DC01CB019C8B8B8B47
:102540000FC080E991E09A8B898B89899A890197DC
:10255000F1F79A8B898B8B899C8901979C8B8B8B4C
:102560008B899C89009769F792C06D897E898F89D4
:10257000988D0E944100DC01CB019C8B8B8B8B8959
:102580009C89988B8F878F8598890197F1F7988B15
:102590008F877DC088A1823009F076C080EC0E94D0
:1025A000E30E80E090E0A0E2B1E48B879C87AD87EA
:1025B000BE876B857C858D859E8520E030E04AE76F
:1025C00055E40E941702DC01CB018F839887A9870D
:1025D000BA876F81788589859A8520E030E040E868
:1025E0005FE30E941D0488232CF481E090E09E8329
:1025F0008D833FC06F81788589859A8520E03FEF84
:102600004FE757E40E94BD0318164CF56B857C8597
:102610008D859E8520E030E040E251E40E94170263
:10262000DC01CB01BC01CD010E944100DC01CB01EA
:102630009E838D830FC080E991E09C838B838B8187
:102640009C810197F1F79C838B838D819E810197FB
:102650009E838D838D819E81009769F718C06F815D
:10266000788589859A850E944100DC01CB019E8393
:102670008D838D819E819A83898389819A81019737
:10268000F1F79A83898303C081E08AA319C081E0AE
:1026900090E09E8F8D8F08C08CE10E94E30E8D8D9F
:1026A0009E8D01969E8F8D8F89A1282F30E08D8D74
:1026B0009E8D2817390784F78F8D0E94970F1AA2D5
:1026C0008AA1A2960FB6F894DEBF0FBECDBFCF9100
:1026D000DF910895DF93CF9300D000D00F92CDB754
:1026E000DEB789836A838A8181508A838981282F12
:1026F00030E03D832C838C819D818130910531F0C8
:102700002C813D812230310531F00AC08A81805808
:102710000E94E30E08C08A8180540E94E30E03C029
:1027200031E03B8301C01B828B810F900F900F9093
:102730000F900F90CF91DF910895DF93CF9300D04A
:102740000F92CDB7DEB789836A838981882341F4EC
:102750008A81803198F48A8180580E94E30E0EC0ED
:102760008981813041F48A81803140F48A818054AA
:102770000E94E30E03C081E08B8301C01B828B812A
:102780000F900F900F90CF91DF910895DF93CF932B
:10279000CDB7DEB765970FB6F894DEBF0FBECDBFDD
:1027A0009C8B8B8BEB89FC898FEF80831F868B89B9
:1027B0009C89009709F4EDC0198AE5C08989882FA2
:1027C00090E0FC01E951FF4F908181E0692F40E0EA
:1027D0000E943607188AC1C08889882F90E0FC01C2
:1027E000E551FF4F90819E012E5E3F4F83E0692FA0
:1027F000A9010E9425088A89882309F0ABC080E0DE
:1028000090E0A0EAB1E48B879C87AD87BE876B859B
:102810007C858D859E8520E030E04AE755E40E9466
:102820001702DC01CB018F839887A987BA876F8154
:10283000788589859A8520E030E040E85FE30E9452
:102840001D0488232CF481E090E09E838D833FC09B
:102850006F81788589859A8520E03FEF4FE757E4BF
:102860000E94BD0318164CF56B857C858D859E8571
:1028700020E030E040E251E40E941702DC01CB018D
:10288000BC01CD010E944100DC01CB019E838D8300
:102890000FC080E991E09C838B838B819C810197A1
:1028A000F1F79C838B838D819E8101979E838D831D
:1028B0008D819E81009769F714C06F817885898525
:1028C0009A850E944100DC01CB019E838D838D811E
:1028D0009E819A83898389819A810197F1F79A83EE
:1028E00089838889882F90E0FC01E551FF4F908112
:1028F0009E012E5E3F4F83E0692FA9010E942508AB
:102900000FC08889882F90E0FC01E551FF4F90812E
:102910009E012E5E3F4F83E0692FA9010E9425088A
:102920008A89882371F38989482F50E08889282F64
:1029300030E0CA01880F991F880F991F820F931FDB
:10294000FC01E952FF4F8081EB89FC89808381E0A3
:102950008F8707C088898F5F888B8889843008F4C7
:102960003BCF8989882F90E0FC01E951FF4F90818E
:1029700081E0692F41E00E9436078F85813039F070
:1029800089898F5F898B8989843008F417CF1D8AE4
:1029900002C081E08D8B8D8965960FB6F894DEBFFD
:1029A0000FBECDBFCF91DF910895DF93CF93CDB709
:1029B000DEB70E94F0090E94430E0E945A0E80E684
:1029C00090E00E944B10FFCFAA1BBB1B51E107C038
:1029D000AA1FBB1FA617B70710F0A61BB70B881FAF
:1029E000991F5A95A9F780959095BC01CD0108953E
:1029F0002F923F924F925F926F927F928F929F920F
:102A0000AF92BF92CF92DF92EF92FF920F931F93FC
:102A1000CF93DF93CDB7DEB7CA1BDB0B0FB6F894AD
:102A2000DEBF0FBECDBF09942A88398848885F84ED
:102A30006E847D848C849B84AA84B984C884DF805E
:102A4000EE80FD800C811B81AA81B981CE0FD11D42
:102A50000FB6F894DEBF0FBECDBFED010895F89418
:022A6000FFCFA6
:102A62004C6561726E20496E204465707468000086
:102A72000000000000000000000100000101000051
:102A82000201000003010000040100000501000032
:102A9200060100000701000200010001030100011C
:102AA2000101000102010001040100010501000110
:102AB20006010001070100030200010303000103F4
:102AC20004000103050001010001000204010000ED
:102AD200000000000000003738392F3435362A3123
:102AE20032332D43303D2B04050607020304050053
:00000001FF
