:020000040800F2
:1000000000280020ED0100083D0200083D02000824
:100010003D0200083D0200083D020008000000000B
:100020000000000000000000000000003D02000889
:100030003D020008000000003D0200083D020008EB
:100040003D0200083D0200083D0200083D02000894
:100050003D0200083D020008C9050008ED05000842
:100060001106000835060008590600083D02000880
:100070003D0200083D0200083D0200083D02000864
:100080003D0200083D0200083D0200083D02000854
:100090003D0200083D0200083D0200087D06000800
:1000A0003D0200083D0200083D0200083D02000834
:1000B0003D0200083D0200083D0200083D02000824
:1000C0003D0200083D0200083D0200083D02000814
:1000D0003D0200083D0200083D0200083D02000804
:1000E000250700083D020008000000003D0200084E
:1000F0003D0200083D0200083D0200083D020008E4
:100100003D0200083D0200083D0200083D020008D3
:100110003D0200083D0200083D0200083D020008C3
:100120003D0200083D0200083D0200083D020008B3
:1001300010B5054C237833B9044B13B10448AFF321
:1001400000800123237010BD00000020000000008B
:10015000F409000808B5034B1BB103490348AFF38A
:10016000008008BD0000000004000020F409000821
:1001700080B400AF034B01221A8000BFBD4680BC93
:10018000704700BF1C00002080B586B000AF134B45
:100190009B69124A43F008039361104B9B690F4A15
:1001A00043F0010393610E4A3B1D07CA83E8070031
:1001B00000233B740B4B7B6101237B743B1D184672
:1001C00000F0F6F9084B01221A80074B1B88002B20
:1001D000FBD0054B00221A80F7E700BF0010024059
:1001E0000C0A0008710100081C0000200D4885461B
:1001F000AFF300800C480D490D4A002302E0D458AB
:10020000C4500433C4188C42F9D30A4A0A4C002360
:1002100001E013600432A242FBD300F0C7FBFFF7FA
:10022000B3FFFEE7002800200000002000000020AF
:10023000200A0008000000205C000020FEE700000B
:1002400080B483B000AF0346FB80FB880F2B54D8EB
:1002500001A252F823F000BF99020008A70200088B
:10026000B5020008C3020008D1020008DF0200083E
:10027000DF020008DF020008DF020008DF020008DA
:10028000ED020008ED020008ED020008ED02000892
:10029000ED020008ED0200081A4B1B68194A43F0F2
:1002A0004003136029E0174B1B68164A43F0800394
:1002B000136022E0134B1B68124A43F480731360EF
:1002C0001BE0104B1B680F4A43F40073136014E0EB
:1002D0000C4B1B680B4A43F4806313600DE0094B21
:1002E0001B68084A43F40003136006E0064B1B68D2
:1002F000054A43F48073136000BF00BF0C37BD464E
:1003000080BC704700E100E004E100E080B483B00D
:1003100000AF0346FB80FB880F2B54D801A252F894
:1003200023F000BF65030008730300088103000881
:100330008F0300089D030008AB030008AB0300080F
:10034000AB030008AB030008AB030008B9030008C7
:10035000B9030008B9030008B9030008B90300088D
:10036000B90300081A4B1B68194A43F04003136095
:1003700029E0174B1B68164A43F08003136022E004
:10038000134B1B68124A43F4807313601BE0104B3D
:100390001B680F4A43F40073136014E00C4B1B6896
:1003A0000B4A43F4806313600DE0094B1B68084A55
:1003B00043F40003136006E0064B1B68054A43F450
:1003C0008073136000BF00BF0C37BD4680BC704710
:1003D00080E100E084E100E080B584B000AF7860A7
:1003E0007B681B893B810823BB727B685B6807F1D4
:1003F00008021146184600F05AFA7B681B889B08D1
:100400009BB2FB737B681B88DBB203F00303DBB298
:100410009B00BB735F4AFB7B023352F82320BB7BFC
:100420000F2101FA03F3DB4318465A49FB7B0240D4
:10043000023341F82320574AFB7B023352F8232032
:100440007B685B6854498B4216D07B685B68534974
:100450008B420FD07B685B6851498B4208D07B6828
:100460005B6850498B4201D1032306E0002304E07E
:10047000022302E0012300E00023B97B8B401846F1
:100480004449FB7B0243023341F82320464B9B68DF
:100490007A681288114601228A40D2431146424AA4
:1004A0000B409360404BDB687A681288114601224A
:1004B0008A40D24311463C4A0B40D3607B681B7B89
:1004C000002B0BD1384B9B687A68128811460122A9
:1004D0008A401146344A0B43936029E07B681B7BBA
:1004E000012B0BD1304BDB687A6812881146012250
:1004F0008A4011462C4A0B43D36019E07B681B7B72
:10050000022B15D1284B9B687A681288114601226C
:100510008A401146244A0B439360234BDB687A6878
:100520001288114601228A4011461F4A0B43D360AC
:100530007B681B8819467B681B691C4A42F821307E
:100540007B685B7B012B10D1174B1B687A68128884
:10055000114601228A401146134A0B4313607B68FF
:100560001B881846FFF76CFE10E00F4B1B687A687B
:100570001288114601228A40D24311460A4A0B4092
:1005800013607B681B881846FFF7C0FE00BF10375A
:10059000BD4680BD0000014000080140000C014044
:1005A0000010014000140140000401402000002020
:1005B00080B582B000AF78607868FFF70DFF00BFAC
:1005C0000837BD4680BD000080B500AF054B5B69B4
:1005D000044A43F001035361034B1B68984700BF73
:1005E00080BD00BF000401402000002080B500AFA6
:1005F000054B5B69044A43F002035361034B5B689C
:10060000984700BF80BD00BF0004014020000020CB
:1006100080B500AF054B5B69044A43F004035361A6
:10062000034B9B68984700BF80BD00BF000401409A
:100630002000002080B500AF054B5B69044A43F001
:1006400008035361034BDB68984700BF80BD00BFC0
:10065000000401402000002080B500AF054B5B691D
:10066000044A43F010035361034B1B69984700BFD2
:1006700080BD00BF000401402000002080B500AF15
:10068000264B5B6903F02003002B08D0234B5B69EA
:10069000224A43F020035361214B5B6998471F4B6B
:1006A0005B6903F04003002B08D01C4B5B691B4ABD
:1006B00043F0400353611A4B9B699847174B5B69A2
:1006C00003F08003002B08D0144B5B69134A43F0FE
:1006D00080035361124BDB699847104B5B6903F44D
:1006E0008073002B08D00D4B5B690C4A43F4807378
:1006F00053610B4B1B6A9847084B5B6903F400730B
:10070000002B08D0054B5B69044A43F40073536126
:10071000034B5B6A984700BF80BD00BF00040140E7
:100720002000002080B500AF2D4B5B6903F480638F
:10073000002B08D02A4B5B69294A43F4806353613C
:10074000284B9B6A9847264B5B6903F40063002B98
:1007500008D0234B5B69224A43F400635361214B69
:10076000DB6A98471E4B5B6903F48053002B08D06B
:100770001B4B5B691A4A43F480535361194B1B6B43
:100780009847174B5B6903F40053002B08D0144BB8
:100790005B69134A43F400535361124B5B6B9847F8
:1007A0000F4B5B6903F48043002B08D00C4B5B6953
:1007B0000B4A43F4804353610A4B9B6B9847084BA9
:1007C0005B6903F40043002B08D0054B5B69044AC6
:1007D00043F400435361034BDB6B984700BF80BD7C
:1007E000000401402000002080B483B000AF034625
:1007F000FB80FB88802B42D0802B11DC082B36D06D
:10080000082B06DC022B2ED0042B2ED0012B28D057
:1008100047E0202B2FD0402B2FD0102B29D040E0A9
:10082000B3F5006F33D0B3F5006F09DCB3F5007F8B
:1008300029D0B3F5806F28D0B3F5807F21D030E088
:10084000B3F5005F27D0B3F5005F03DCB3F5805F3D
:100850001FD026E0B3F5804F1FD0B3F5004F1ED058
:100860001FE000231EE004231CE008231AE00C23F1
:1008700018E0102316E0142314E0182312E01C23C0
:1008800010E000230EE004230CE008230AE00C2310
:1008900008E0102306E0142304E0182302E01C23E0
:1008A00000E0002318460C37BD4680BC704790B569
:1008B00085B000AF786039600023BB600023FB7314
:1008C0003B681B88FF2B01D87B6801E07B68043301
:1008D000BB603B681B881846FFF786FF03461A4635
:1008E0000F239340DA43BB681B681A40BB681A6049
:1008F0003B689B78072B0BD03B689B78062B07D077
:100900003B689B78052B03D03B689B78042B0ED16A
:100910003B689B78043B9B005AB23B68DB785BB238
:1009200013435BB2DBB203F00F03FB732CE03B68B5
:100930009B78012B03D03B689B78002B07D13B6849
:100940009B789B00DBB203F00F03FB731CE03B685A
:100950009B78082B02D10423FB7315E00823FB735B
:100960003B689B78022B07D17B68DB683A6812886A
:100970001A437B68DA6007E07B68DB683A681288B4
:10098000D2431A407B68DA60FC7B3B681B881846C0
:10099000FFF72AFF034604FA03F2BB681B681A43F9
:1009A000BB681A6000BF1437BD4690BD70B5002506
:1009B0000C4E0D4CA41BA410A54209D100F01AF84E
:1009C00000250A4E0A4CA41BA410A54205D170BDF7
:1009D00056F8253098470135EEE756F82530984708
:1009E0000135F2E7180A0008180A0008180A00087A
:1009F0001C0A0008F8B500BFF8BC08BC9E4670474A
:0C0A0000F8B500BFF8BC08BC9E4670476B
:0C0A0C0009000000000C0140000217006F
:040A1800550100087C
:040A1C00310100089C
:04000005080001ED01
:00000001FF
