:020000040800F2
:1000000000280020010200085102000851020008E7
:1000100051020008510200085102000800000000CF
:100020000000000000000000000000005102000875
:1000300051020008000000005102000851020008AF
:100040005102000851020008510200085102000844
:100050005102000851020008550200087902000808
:100060009D020008C1020008E502000851020008D4
:100070005102000851020008510200085102000814
:100080005102000851020008510200085102000804
:10009000510200085102000851020008090300083B
:1000A00051020008510200085102000851020008E4
:1000B00051020008510200085102000851020008D4
:1000C00051020008510200085102000851020008C4
:1000D00051020008D1090008E5090008F9090008E3
:1000E000B10300085102000800000000510200089E
:1000F0005102000851020008510200085102000894
:100100005102000851020008510200085102000883
:100110005102000851020008510200085102000873
:100120005102000851020008510200085102000863
:1001300010B5054C237833B9044B13B10448AFF321
:1001400000800123237010BD00000020000000008B
:10015000540A000808B5034B1BB103490348AFF329
:10016000008008BD0000000004000020540A0008C0
:1001700080B500AF00220549054800F095FB01223B
:100180000249034800F074FB00BF80BD200000203E
:100190000038014080B586B000AF164B9B69154A08
:1001A00043F004039361134B9B69124A43F0080325
:1001B0009361104B9B690F4A43F0010393614FF425
:1001C000E133BB600023FB7320233B740A4B7B614C
:1001D00000233B7300237B730023BB730C233B7111
:1001E0003B1D1946054800F081FA044800F08AFBDF
:1001F000FEE700BF00100240710100080038014016
:100200000D488546AFF300800C480D490D4A002388
:1002100002E0D458C4500433C4188C42F9D30A4ABB
:100220000A4C002301E013600432A242FBD300F029
:10023000EDFBFFF7AFFFFEE70028002000000020E5
:10024000000000208C0A0008000000206000002050
:10025000FEE7000080B500AF054B5B69044A43F040
:1002600001035361034B1B68984700BF80BD00BF6B
:10027000000401402400002080B500AF054B5B69FD
:10028000044A43F002035361034B5B68984700BF85
:1002900080BD00BF000401402400002080B500AFF5
:1002A000054B5B69044A43F004035361034B9B68AD
:1002B000984700BF80BD00BF00040140240000201B
:1002C00080B500AF054B5B69044A43F008035361F6
:1002D000034BDB68984700BF80BD00BF00040140AE
:1002E0002400002080B500AF054B5B69044A43F051
:1002F00010035361034B1B69984700BF80BD00BFCB
:10030000000401402400002080B500AF264B5B694B
:1003100003F02003002B08D0234B5B69224A43F0F3
:1003200020035361214B5B6998471F4B5B6903F0C6
:100330004003002B08D01C4B5B691B4A43F0400371
:1003400053611A4B9B699847174B5B6903F0800315
:10035000002B08D0144B5B69134A43F080035361B0
:10036000124BDB699847104B5B6903F48073002BD9
:1003700008D00D4B5B690C4A43F4807353610B4BFF
:100380001B6A9847084B5B6903F40073002B08D085
:10039000054B5B69044A43F400735361034B5B6A8A
:1003A000984700BF80BD00BF00040140240000202A
:1003B00080B500AF2D4B5B6903F48063002B08D040
:1003C0002A4B5B69294A43F480635361284B9B6A3B
:1003D0009847264B5B6903F40063002B08D0234B3E
:1003E0005B69224A43F400635361214BDB6A9847FF
:1003F0001E4B5B6903F48053002B08D01B4B5B69D9
:100400001A4A43F480535361194B1B6B9847174B9F
:100410005B6903F40053002B08D0144B5B69134A4B
:1004200043F400535361124B5B6B98470F4B5B696E
:1004300003F48043002B08D00C4B5B690B4A43F458
:10044000804353610A4B9B6B9847084B5B6903F4ED
:100450000043002B08D0054B5B69044A43F400437A
:100460005361034BDB6B984700BF80BD0004014024
:100470002400002080B483B000AF0346FB80FB88DB
:10048000802B42D0802B11DC082B36D0082B06DCC9
:10049000022B2ED0042B2ED0012B28D047E0202B6E
:1004A0002FD0402B2FD0102B29D040E0B3F5006F78
:1004B00033D0B3F5006F09DCB3F5007F29D0B3F575
:1004C000806F28D0B3F5807F21D030E0B3F5005F96
:1004D00027D0B3F5005F03DCB3F5805F1FD026E0C3
:1004E000B3F5804F1FD0B3F5004F1ED01FE000239F
:1004F0001EE004231CE008231AE00C2318E010235C
:1005000016E0142314E0182312E01C2310E000234B
:100510000EE004230CE008230AE00C2308E010237B
:1005200006E0142304E0182302E01C2300E000236B
:1005300018460C37BD4680BC704790B585B000AFFB
:10054000786039600023BB600023FB733B681B8825
:10055000FF2B01D87B6801E07B680433BB603B68FC
:100560001B881846FFF786FF03461A460F23934061
:10057000DA43BB681B681A40BB681A603B689B780B
:10058000072B0BD03B689B78062B07D03B689B78EA
:10059000052B03D03B689B78042B0ED13B689B78DE
:1005A000043B9B005AB23B68DB785BB213435BB2FF
:1005B000DBB203F00F03FB732CE03B689B78012B4D
:1005C00003D03B689B78002B07D13B689B789B004E
:1005D000DBB203F00F03FB731CE03B689B78082B36
:1005E00002D10423FB7315E00823FB733B689B785F
:1005F000022B07D17B68DB683A6812881A437B6854
:10060000DA6007E07B68DB683A681288D2431A40F8
:100610007B68DA60FC7B3B681B881846FFF72AFF83
:10062000034604FA03F2BB681B681A43BB681A60EE
:1006300000BF1437BD4690BD80B400AF0A4B5B6865
:100640009B0803F00303012B06D0012B02D3022BDE
:1006500004D005E0054B03E0054B01E0044BFFE748
:100660001846BD4680BC70470010024000127A0058
:100670000024F40080B500AFFFF7DEFF0146054B14
:100680005B681B0903F00F03034AD35C21FA03F3F1
:10069000184680BD00100240740A000880B500AF03
:1006A000FFF7E8FF0146054B5B681B0A03F00703F1
:1006B000034AD35C21FA03F3184680BD00100240C0
:1006C0006C0A000880B500AFFFF7D4FF0146054B68
:1006D0005B68DB0A03F00703034AD35C21FA03F3E8
:1006E000184680BD001002406C0A000880B584B036
:1006F00000AF78603960574A3B6813607B68564AA0
:10070000934206D1554B9B69544A43F4804393610D
:1007100014E07B68524A934206D1504BDB694F4A42
:1007200043F40033D36109E07B684E4A934205D11C
:100730004A4BDB69494A43F48023D3617B68DB6819
:1007400043F400527B68DA607B68DB683A681278B1
:100750001A437B68DA607B68DB683A68127A1A436E
:100760007B68DA607B68DB683A68527A1A437B6898
:10077000DA607B681B693A68927A1A437B681A616F
:100780007B685B693A68D27A1A437B685A617B68F6
:10079000314A934203D1FFF795FFF86002E0FFF77B
:1007A0007DFFF8603B685B681B01FA68B2FBF3F3FE
:1007B0001901FA6813469B0013449A001A443B68D7
:1007C0005B689B00B2FBF3F23B685B681B01F86857
:1007D000B0FBF3F3642000FB03F3D31A1B01224A9E
:1007E000A2FB03235B0903F00F030B43BB607B6891
:1007F000BA689A603B681B7B002B26D07B68DB685D
:100800003A68127B1A437B68DA607B68124A93422B
:1008100006D1164B1B68154A43F02003136014E001
:100820007B680F4A934206D1104B1B680F4A43F076
:100830004003136009E07B680A4A934205D10B4BE1
:100840001B680A4A43F08003136000BF1037BD469F
:1008500080BD00BF1C000020003801400010024095
:1008600000440040004800401F85EB5104E100E0D7
:1008700080B485B000AFF860B9601346FB71FB79B6
:10088000012B06D100BFFB681B6803F08003002B1F
:10089000F9D0BB681B88DAB2FB685A6000BF143716
:1008A000BD4680BC7047000080B485B000AFF860E2
:1008B000B9601346FB71FB79012B06D100BFFB68C1
:1008C0001B6803F02003002BF9D00D4B1B685B7AEB
:1008D000002B07D1FB685B689BB2DBB29AB2BB68A6
:1008E0001A8007E0FB685B689BB203F07F039AB253
:1008F000BB681A8000BF1437BD4680BC704700BF7C
:100900001C00002080B584B000AF78607B682B4A63
:10091000934218D14FF40073BB810623BB730123AC
:10092000FB7307F10C0319462548FFF706FE4FF449
:100930008063BB810823BB7307F10C031946204871
:10094000FFF7FBFD36E07B681E4A934216D1042375
:10095000BB810623BB730123FB7307F10C0319460C
:100960001748FFF7EAFD0823BB810823BB7307F193
:100970000C0319461248FFF7E0FD1BE07B68124AA2
:10098000934217D14FF48063BB810623BB730123CD
:10099000FB7307F10C0319460C48FFF7CEFD4FF42B
:1009A0000063BB810823BB7307F10C03194607489A
:1009B000FFF7C3FD00BF1037BD4680BD00380140C2
:1009C000000801400044004000480040000C014085
:1009D00080B500AF024B1B681B69984700BF80BD04
:1009E0001C00002080B500AF024B1B681B699847B4
:1009F00000BF80BD1C00002080B500AF024B1B680B
:100A00001B69984700BF80BD1C00002070B5002501
:100A10000C4E0D4CA41BA410A54209D100F01AF8ED
:100A200000250A4E0A4CA41BA410A54205D170BD96
:100A300056F8253098470135EEE756F825309847A7
:100A40000135F2E7840A0008840A0008840A0008D5
:100A5000880A0008F8B500BFF8BC08BC9E4670477D
:0C0A6000F8B500BFF8BC08BC9E4670470B
:100A6C000000000001020304000000000000000070
:080A7C0001020304060708094A
:040A84005501000810
:040A88003101000830
:0400000508000201EC
:00000001FF
