:020000040800F2
:1000000000280020AD060008FD060008FD060008D7
:10001000FD060008FD060008FD06000800000000BF
:10002000000000000000000000000000FD060008C5
:10003000FD06000800000000FD060008FD0600089F
:10004000FD060008FD060008FD060008FD06000884
:10005000FD060008FD060008890A0008AD0A000830
:10006000D10A0008F50A0008190B0008FD0600086F
:10007000FD060008FD060008FD060008FD06000854
:10008000FD060008FD060008FD060008FD06000844
:10009000FD060008FD060008FD0600083D0B0008EF
:1000A000FD060008FD060008FD060008FD06000824
:1000B000FD060008FD060008FD060008FD06000814
:1000C000FD060008FD060008FD060008FD06000804
:1000D000FD060008FD060008FD060008FD060008F4
:1000E000E50B0008FD06000800000000FD06000802
:1000F000FD060008FD060008FD060008FD060008D4
:10010000FD060008FD060008FD060008FD060008C3
:10011000FD060008FD060008FD060008FD060008B3
:10012000FD060008FD060008FD060008FD060008A3
:1001300010B5054C237833B9044B13B10448AFF321
:1001400000800123237010BD00000020000000008B
:10015000E40E000808B5034B1BB103490348AFF395
:10016000008008BD0000000004000020E40E00082C
:1001700080B500AF01220221084800F077FE01207F
:1001800000F06CF800220221044800F06FFE02200B
:1001900000F064F80023184680BD00BF000C014049
:1001A00080B582B000AF0123BB800423BB71012363
:1001B000FB713B1D1946274800F0D9FD0223BB8087
:1001C0000423BB710123FB713B1D1946214800F03C
:1001D000CEFD1023BB800423BB710123FB713B1DAB
:1001E00019461D4800F0C3FD2023BB800423BB71CA
:1001F0000123FB713B1D1946174800F0B8FD402351
:10020000BB800423BB710123FB713B1D19461248BF
:1002100000F0ADFD8023BB800423BB710123FB7183
:100220003B1D19460C4800F0A2FD022000F03EF8EC
:10023000282000F03BF80E2000F038F8062000F0EF
:1002400035F8012000F032F8002318460837BD4683
:1002500080BD00BF000C01400008014080B485B0A3
:1002600000AF78600023FB600BE00023BB6002E07E
:10027000BB680133BB60BB68FE2BF9D9FB68013357
:10028000FB60FA687B689A42EFD300BF1437BD4623
:1002900080BC704780B500AF012000F007F8022055
:1002A000FFF7DCFF0023184680BD000080B582B058
:1002B00000AF0346FB71002201214F4800F0D6FD3C
:1002C000002204214C4800F0D1FDFB79DB09DBB2B0
:1002D00003F00103002B05D001228021474800F0E4
:1002E000C5FD04E000228021444800F0BFFDFB79F9
:1002F0009B09DBB203F00103002B05D00122402152
:100300003E4800F0B3FD04E0002240213B4800F0ED
:10031000ADFDFB795B09DBB203F00103002B05D0D7
:1003200001222021354800F0A1FD04E00022202117
:10033000324800F09BFDFB791B09DBB203F001039F
:10034000002B05D0012210212C4800F08FFD04E085
:1003500000221021294800F089FDFFF709FFFB79F1
:10036000DB08DBB203F00103002B05D00122802162
:10037000224800F07BFD04E0002280211F4800F0AD
:1003800075FDFB799B08DBB203F00103002B05D060
:1003900001224021194800F069FD04E000224021BB
:1003A000164800F063FDFB795B08DBB203F0010344
:1003B000002B05D001222021104800F057FD04E059
:1003C000002220210D4800F051FDFB7903F00103CC
:1003D000002B05D001221021084800F047FD04E061
:1003E00000221021054800F041FDFFF7C1FE002367
:1003F00018460837BD4680BD000C0140000801408A
:1004000080B582B000AF0346FB71012201214F4845
:1004100000F02CFD002204214C4800F027FDFB7960
:10042000DB09DBB203F00103002B05D001228021A0
:10043000474800F01BFD04E000228021444800F002
:1004400015FDFB799B09DBB203F00103002B05D0FE
:10045000012240213E4800F009FD04E00022402135
:100460003B4800F003FDFB795B09DBB203F00103BD
:10047000002B05D001222021354800F0F7FC04E0D4
:1004800000222021324800F0F1FCFB791B09DBB28D
:1004900003F00103002B05D0012210212C4800F0AD
:1004A000E5FC04E000221021294800F0DFFCFFF702
:1004B0005FFEFB79DB08DBB203F00103002B05D004
:1004C00001228021224800F0D1FC04E0002280219A
:1004D0001F4800F0CBFCFB799B08DBB203F0010363
:1004E000002B05D001224021194800F0BFFC04E098
:1004F00000224021164800F0B9FCFB795B08DBB212
:1005000003F00103002B05D001222021104800F048
:10051000ADFC04E0002220210D4800F0A7FCFB798F
:1005200003F00103002B05D001221021084800F040
:100530009DFC04E000221021054800F097FCFFF725
:1005400017FE002318460837BD4680BD000C014049
:100550000008014080B584B000AF7860012201211D
:100560000F4800F083FC002204210D4800F07EFCBF
:100570000023FB7309E0FB7B7A6813441B78184661
:10058000FFF73EFFFB7B0133FB73FB7B7A68134471
:100590001B78002BEFD1002318461037BD4680BDD5
:1005A000000C014080B582B000AF03460A46FB71E3
:1005B0001346BB71FB79002B09D1BB790F2B15D8E2
:1005C000BB79803BDBB21846FFF770FE0EE0FB798B
:1005D000012B09D1BB790F2B08D8BB79403BDBB28B
:1005E0001846FFF763FE01E0012300E000231846F0
:1005F0000837BD4680BD000080B500AF094B012221
:100600001A800948FFF7A6FF04210120FFF7CAFF5F
:100610000648FFF79FFF4FF4FA60FFF71FFE00BF89
:1006200080BD00BF1C000020FC0E0008100F000859
:1006300080B586B000AF194B9B69184A43F004039C
:100640009361164B9B69154A43F008039361134B62
:100650009B69124A43F001039361FFF7A1FDFFF785
:1006600019FE0F4A3B1D07CA83E8070001233B74AC
:100670000C4B7B6101237B743B1D184600F0F8F99D
:10068000094B01221A80084B1B88002BFBD0FFF777
:1006900001FE054B00221A80F5E700BF0010024062
:1006A000140F0008F90500081C0000200D488546BD
:1006B000AFF300800C480D490D4A002302E0D458E6
:1006C000C4500433C4188C42F9D30A4A0A4C00239C
:1006D00001E013600432A242FBD300F0DFFBFFF71E
:1006E000A7FFFEE7002800200000002000000020F7
:1006F000280F0008000000205C000020FEE700003A
:1007000080B483B000AF0346FB80FB880F2B54D826
:1007100001A252F823F000BF59070008670700083C
:100720007507000883070008910700089F07000865
:100730009F0700089F0700089F0700089F07000801
:10074000AD070008AD070008AD070008AD070008B9
:10075000AD070008AD0700081A4B1B68194A43F0A3
:100760004003136029E0174B1B68164A43F08003CF
:10077000136022E0134B1B68124A43F4807313602A
:100780001BE0104B1B680F4A43F40073136014E026
:100790000C4B1B680B4A43F4806313600DE0094B5C
:1007A0001B68084A43F40003136006E0064B1B680D
:1007B000054A43F48073136000BF00BF0C37BD4689
:1007C00080BC704700E100E004E100E080B483B049
:1007D00000AF0346FB80FB880F2B54D801A252F8D0
:1007E00023F000BF2508000833080008410800086E
:1007F0004F0800085D0800086B0800086B08000837
:100800006B0800086B0800086B08000879080008EE
:1008100079080008790800087908000879080008B4
:10082000790800081A4B1B68194A43F0400313600B
:1008300029E0174B1B68164A43F08003136022E03F
:10084000134B1B68124A43F4807313601BE0104B78
:100850001B680F4A43F40073136014E00C4B1B68D1
:100860000B4A43F4806313600DE0094B1B68084A90
:1008700043F40003136006E0064B1B68054A43F48B
:100880008073136000BF00BF0C37BD4680BC70474B
:1008900080E100E084E100E080B584B000AF7860E2
:1008A0007B681B893B810823BB727B685B6807F10F
:1008B00008021146184600F05AFA7B681B889B080C
:1008C0009BB2FB737B681B88DBB203F00303DBB2D4
:1008D0009B00BB735F4AFB7B023352F82320BB7B38
:1008E0000F2101FA03F3DB4318465A49FB7B024010
:1008F000023341F82320574AFB7B023352F823206E
:100900007B685B6854498B4216D07B685B685349AF
:100910008B420FD07B685B6851498B4208D07B6863
:100920005B6850498B4201D1032306E0002304E0B9
:10093000022302E0012300E00023B97B8B4018462C
:100940004449FB7B0243023341F82320464B9B681A
:100950007A681288114601228A40D2431146424ADF
:100960000B409360404BDB687A6812881146012285
:100970008A40D24311463C4A0B40D3607B681B7BC4
:10098000002B0BD1384B9B687A68128811460122E4
:100990008A401146344A0B43936029E07B681B7BF5
:1009A000012B0BD1304BDB687A681288114601228B
:1009B0008A4011462C4A0B43D36019E07B681B7BAD
:1009C000022B15D1284B9B687A68128811460122A8
:1009D0008A401146244A0B439360234BDB687A68B4
:1009E0001288114601228A4011461F4A0B43D360E8
:1009F0007B681B8819467B681B691C4A42F82130BA
:100A00007B685B7B012B10D1174B1B687A681288BF
:100A1000114601228A401146134A0B4313607B683A
:100A20001B881846FFF76CFE10E00F4B1B687A68B6
:100A30001288114601228A40D24311460A4A0B40CD
:100A400013607B681B881846FFF7C0FE00BF103795
:100A5000BD4680BD0000014000080140000C01407F
:100A6000001001400014014000040140200000205B
:100A700080B582B000AF78607868FFF70DFF00BFE7
:100A80000837BD4680BD000080B500AF054B5B69EF
:100A9000044A43F001035361034B1B68984700BFAE
:100AA00080BD00BF000401402000002080B500AFE1
:100AB000054B5B69044A43F002035361034B5B68D7
:100AC000984700BF80BD00BF000401402000002007
:100AD00080B500AF054B5B69044A43F004035361E2
:100AE000034B9B68984700BF80BD00BF00040140D6
:100AF0002000002080B500AF054B5B69044A43F03D
:100B000008035361034BDB68984700BF80BD00BFFB
:100B1000000401402000002080B500AF054B5B6958
:100B2000044A43F010035361034B1B69984700BF0D
:100B300080BD00BF000401402000002080B500AF50
:100B4000264B5B6903F02003002B08D0234B5B6925
:100B5000224A43F020035361214B5B6998471F4BA6
:100B60005B6903F04003002B08D01C4B5B691B4AF8
:100B700043F0400353611A4B9B699847174B5B69DD
:100B800003F08003002B08D0144B5B69134A43F039
:100B900080035361124BDB699847104B5B6903F488
:100BA0008073002B08D00D4B5B690C4A43F48073B3
:100BB00053610B4B1B6A9847084B5B6903F4007346
:100BC000002B08D0054B5B69044A43F40073536162
:100BD000034B5B6A984700BF80BD00BF0004014023
:100BE0002000002080B500AF2D4B5B6903F48063CB
:100BF000002B08D02A4B5B69294A43F48063536178
:100C0000284B9B6A9847264B5B6903F40063002BD3
:100C100008D0234B5B69224A43F400635361214BA4
:100C2000DB6A98471E4B5B6903F48053002B08D0A6
:100C30001B4B5B691A4A43F480535361194B1B6B7E
:100C40009847174B5B6903F40053002B08D0144BF3
:100C50005B69134A43F400535361124B5B6B984733
:100C60000F4B5B6903F48043002B08D00C4B5B698E
:100C70000B4A43F4804353610A4B9B6B9847084BE4
:100C80005B6903F40043002B08D0054B5B69044A01
:100C900043F400435361034BDB6B984700BF80BDB7
:100CA000000401402000002080B483B000AF034660
:100CB000FB80FB88802B42D0802B11DC082B36D0A8
:100CC000082B06DC022B2ED0042B2ED0012B28D093
:100CD00047E0202B2FD0402B2FD0102B29D040E0E5
:100CE000B3F5006F33D0B3F5006F09DCB3F5007FC7
:100CF00029D0B3F5806F28D0B3F5807F21D030E0C4
:100D0000B3F5005F27D0B3F5005F03DCB3F5805F78
:100D10001FD026E0B3F5804F1FD0B3F5004F1ED093
:100D20001FE000231EE004231CE008231AE00C232C
:100D300018E0102316E0142314E0182312E01C23FB
:100D400010E000230EE004230CE008230AE00C234B
:100D500008E0102306E0142304E0182302E01C231B
:100D600000E0002318460C37BD4680BC704790B5A4
:100D700085B000AF786039600023BB600023FB734F
:100D80003B681B88FF2B01D87B6801E07B6804333C
:100D9000BB603B681B881846FFF786FF03461A4670
:100DA0000F239340DA43BB681B681A40BB681A6084
:100DB0003B689B78072B0BD03B689B78062B07D0B2
:100DC0003B689B78052B03D03B689B78042B0ED1A6
:100DD0003B689B78043B9B005AB23B68DB785BB274
:100DE00013435BB2DBB203F00F03FB732CE03B68F1
:100DF0009B78012B03D03B689B78002B07D13B6885
:100E00009B789B00DBB203F00F03FB731CE03B6895
:100E10009B78082B02D10423FB7315E00823FB7396
:100E20003B689B78022B07D17B68DB683A681288A5
:100E30001A437B68DA6007E07B68DB683A681288EF
:100E4000D2431A407B68DA60FC7B3B681B881846FB
:100E5000FFF72AFF034604FA03F2BB681B681A4334
:100E6000BB681A6000BF1437BD4690BD80B483B024
:100E700000AF78600B467B8013467B707B78002B3D
:100E800003D07A887B681A6102E07A887B685A61AD
:100E900000BF0C37BD4680BC7047000070B5002510
:100EA0000C4E0D4CA41BA410A54209D100F01AF859
:100EB00000250A4E0A4CA41BA410A54205D170BD02
:100EC00056F8253098470135EEE756F82530984713
:100ED0000135F2E7200F0008200F0008200F00085E
:100EE000240F0008F8B500BFF8BC08BC9E46704748
:0C0EF000F8B500BFF8BC08BC9E46704777
:100EFC00495251204558544939206F6363757272B9
:100F0C00656400002D7C5F0009000000000C0140AE
:040F1C0000021700B8
:040F2000550100086F
:040F2400310100088F
:04000005080006AD3C
:00000001FF
