:020000040800F2
:1000000000280020E1040008310500087101000803
:10001000770100087D01000883010008000000004E
:10002000000000000000000000000000890100083E
:1000300031050008000000002D020008310500080D
:1000400031050008310500083105000831050008B8
:10005000310500083105000835050008590500087C
:100060007D050008A1050008C50500083105000848
:100070003105000831050008310500083105000888
:100080003105000831050008310500083105000878
:10009000310500083105000831050008E9050008B0
:1000A0003105000831050008310500083105000858
:1000B0003105000831050008310500083105000848
:1000C0003105000831050008310500083105000838
:1000D0003105000831050008310500083105000828
:1000E00091060008310500080000000031050008F5
:1000F0003105000831050008310500083105000808
:1001000031050008310500083105000831050008F7
:1001100031050008310500083105000831050008E7
:1001200031050008310500083105000831050008D7
:1001300010B5054C237833B9044B13B10448AFF321
:1001400000800123237010BD00000020000000008B
:100150009C07000808B5034B1BB103490348AFF3E4
:10016000008008BD00000000040000209C0700087B
:1001700080B400AFFEE780B400AFFEE780B400AF0C
:10018000FEE780B400AFFEE71EF0040F0CBFEFF3F4
:100190000880EFF3098000F029B800BF80B400AFF9
:1001A00000BFBD4680BC704780B485B000AFF8602A
:1001B000B9607A60BB68002B01D1032311E0FB68B2
:1001C000BA68DA60FB68DA68FB685A60FB68DA686C
:1001D000FB689A60FB687A681A61FB6800221A6003
:1001E000002318461437BD4680BC704780B485B0E4
:1001F00000AF78607B6818331B68023B1B78FB7389
:10020000FB7B042B0DD801A252F823F02102000839
:100210002102000821020008210200082102000832
:1002200000BF00BF1437BD4680BC704780B400AF2C
:1002300000BFBD4680BC704780B400AF0B4A0C4B7A
:10024000C3F890210A4BD3F89031A3F50063084A14
:10025000C2F89431064BD3F89431083B044AC2F8F3
:10026000983100BFBD4680BC704700BF0028002009
:10027000AC01002080B400AF00BFFDE780B582B0C4
:1002800000AF0023FB71164B002283F8A821FFF773
:10029000D3FF642213491448FFF786FF0346002B5F
:1002A00002D0FB790133FB71104B114A07CA03C31B
:1002B0001A70104BFF221A710E4B0F4A9A600D4BA9
:1002C0004FF496721A600B4800F056F803461A462F
:1002D000FB791344FB71FB7918460837BD4680BD96
:1002E000AC0100201C0000205803002084030020E3
:1002F000B40700086C0300207502000880B485B0C4
:1003000000AF78607B68DB681A467B685A617B685F
:100310005B691A1F7B685A617B685B694FF080726A
:100320001A607B685B691A1F7B685A617B689A68F0
:100330007B685B691A607B685B691A1F7B685A611E
:100340007B685B696FF002021A600023FB600BE0C0
:100350007B685B691A1F7B685A617B685B69002256
:100360001A60FB680133FB60FB680C2BF0DD00BFFB
:100370001437BD4680BC704780B584B000AF78604C
:100380000023FB73124BD3F898217B68DA607B68FB
:10039000DA687B681B68D21A7B681A617B681B6904
:1003A0000C4AD2B2934201D202230DE07B681B6952
:1003B000083B074AC2F898317868FFF79FFF7B68CF
:1003C000002283F83620FB7B18461037BD4680BDDF
:1003D000AC010020A806002080B400AFFEE780B486
:1003E00000AFFEE780B400AFFEE7000080B582B04A
:1003F00000AF0023FB71FFF7D1FEFFF73FFF03467D
:10040000002B00D0FEE72A4B4FF480621A60284B85
:10041000284A9A60264B03221A71274B274A92E8F2
:10042000030018600433198002330A0C1A70244B3D
:100430004FF480621A60224B224A9A60204B0322BA
:100440001A71214B214A92E8030018600433198085
:1004500002330A0C1A701E4B4FF480621A601C4B58
:100460001C4A9A601A4B03221A711B4B1B4A92E8D2
:10047000030018600433198002330A0C1A700C4808
:10048000FFF77AFF03461A46FB791344FB710C48C9
:10049000FFF772FF03461A46FB791344FB710C48C1
:1004A000FFF76AFF03461A46FB791344FB71FEE728
:1004B000AC030020D9030008C4030020C0070008D3
:1004C0002C040020DF03000844040020C8070008B3
:1004D000EC030020E503000804040020D007000816
:1004E0000D488546AFF300800C480D490D4A0023A6
:1004F00002E0D458C4500433C4188C42F9D30A4AD9
:100500000A4C002301E013600432A242FBD300F046
:1005100021F9FFF76BFFFEE7002800200000002014
:1005200000000020E007000800000020A8040020D0
:10053000FEE7000080B500AF054B5B69044A43F05D
:1005400001035361034B1B68984700BF80BD00BF88
:10055000000401406C04002080B500AF054B5B69CE
:10056000044A43F002035361034B5B68984700BFA2
:1005700080BD00BF000401406C04002080B500AFC6
:10058000054B5B69044A43F004035361034B9B68CA
:10059000984700BF80BD00BF000401406C040020EC
:1005A00080B500AF054B5B69044A43F00803536113
:1005B000034BDB68984700BF80BD00BF00040140CB
:1005C0006C04002080B500AF054B5B69044A43F022
:1005D00010035361034B1B69984700BF80BD00BFE8
:1005E000000401406C04002080B500AF264B5B691D
:1005F00003F02003002B08D0234B5B69224A43F011
:1006000020035361214B5B6998471F4B5B6903F0E3
:100610004003002B08D01C4B5B691B4A43F040038E
:1006200053611A4B9B699847174B5B6903F0800332
:10063000002B08D0144B5B69134A43F080035361CD
:10064000124BDB699847104B5B6903F48073002BF6
:1006500008D00D4B5B690C4A43F4807353610B4B1C
:100660001B6A9847084B5B6903F40073002B08D0A2
:10067000054B5B69044A43F400735361034B5B6AA7
:10068000984700BF80BD00BF000401406C040020FB
:1006900080B500AF2D4B5B6903F48063002B08D05D
:1006A0002A4B5B69294A43F480635361284B9B6A58
:1006B0009847264B5B6903F40063002B08D0234B5B
:1006C0005B69224A43F400635361214BDB6A98471C
:1006D0001E4B5B6903F48053002B08D01B4B5B69F6
:1006E0001A4A43F480535361194B1B6B9847174BBD
:1006F0005B6903F40053002B08D0144B5B69134A69
:1007000043F400535361124B5B6B98470F4B5B698B
:1007100003F48043002B08D00C4B5B690B4A43F475
:10072000804353610A4B9B6B9847084B5B6903F40A
:100730000043002B08D0054B5B69044A43F4004397
:100740005361034BDB6B984700BF80BD0004014041
:100750006C04002070B500250C4E0D4CA41BA41099
:10076000A54209D100F01AF800250A4E0A4CA41B34
:10077000A410A54205D170BD56F825309847013523
:10078000EEE756F8253098470135F2E7D80700081C
:10079000D8070008D8070008DC070008F8B500BF34
:1007A000F8BC08BC9E467047F8B500BFF8BC08BC52
:0407B0009E467047AA
:1007B40069646C655461736B000000007461736B51
:1007C4005F3100007461736B5F3200007461736B9E
:0407D4005F3300008F
:0407D80055010008BF
:0407DC0031010008DF
:04000005080004E10A
:00000001FF
