:020000040800F2
:100000000028002095020008E5020008E50200082B
:10001000E5020008E5020008E50200080000000013
:10002000000000000000000000000000E5020008E1
:10003000E502000800000000E5020008E5020008F3
:10004000E5020008E5020008E5020008E5020008F4
:10005000E5020008E5020008E90200080D030008B7
:10006000310300085503000879030008E502000881
:10007000E5020008E5020008E5020008E5020008C4
:10008000E5020008E5020008E5020008E5020008B4
:10009000E5020008E5020008E50200089D030008EB
:1000A000E5020008E5020008E5020008E502000894
:1000B000E5020008E5020008E5020008E502000884
:1000C000E5020008E5020008E50200080D0B000843
:1000D000690B0008A90E0008BD0E0008D10E00082B
:1000E00045040008E502000800000000E5020008E1
:1000F000E5020008E5020008E5020008E502000844
:10010000E5020008E5020008E5020008E502000833
:10011000E5020008E5020008E5020008E502000823
:10012000E5020008E5020008E5020008E502000813
:1001300010B5054C237833B9044B13B10448AFF321
:1001400000800123237010BD00000020000000008B
:100150002C0F000808B5034B1BB103490348AFF34C
:10016000008008BD00000000040000202C0F0008E3
:1001700080B500AF00220D490D4800F001FE0122BC
:100180000A490B4800F0E0FD00221021094800F068
:100190009DFA01220549084800F098FB0122102130
:1001A000044800F093FA00BF80BD00BF2800002083
:1001B00000380140000801400030014080B58CB09B
:1001C00000AF2F4B9B692E4A43F0040393612C4BE5
:1001D0009B692B4A43F008039361294B9B69284A8A
:1001E00043F0010393614FF4E1333B62002387F84E
:1001F0002730202387F82830224BFB62002387F822
:100200002430002387F82530002387F826300C237C
:100210003B7707F11C0319461B4800F0D3FC1A4832
:1002200000F0DCFD0123FB810223BB8100237B81E5
:1002300000233B8110237B820023FB800423BB80AF
:100240000023BB824FF440733B820023BB61042335
:10025000BB7010233B800123FB703B4619460B48C3
:1002600000F0B5F901221021084800F02FFA3B1DDB
:100270001946074800F09CFA054800F051FBFEE7DC
:1002800000100240710100080038014000080140E0
:10029000003001400D488546AFF300800C480D4901
:1002A0000D4A002302E0D458C4500433C4188C42D1
:1002B000F9D30A4A0A4C002301E013600432A24237
:1002C000FBD300F00FFEFFF779FFFEE700280020C8
:1002D0000000002000000020640F00080000002043
:1002E00068000020FEE7000080B500AF054B5B69A9
:1002F000044A43F001035361034B1B68984700BF56
:1003000080BD00BF000401402C00002080B500AF7C
:10031000054B5B69044A43F002035361034B5B687E
:10032000984700BF80BD00BF000401402C000020A2
:1003300080B500AF054B5B69044A43F00403536189
:10034000034B9B68984700BF80BD00BF000401407D
:100350002C00002080B500AF054B5B69044A43F0D8
:1003600008035361034BDB68984700BF80BD00BFA3
:10037000000401402C00002080B500AF054B5B69F4
:10038000044A43F010035361034B1B69984700BFB5
:1003900080BD00BF000401402C00002080B500AFEC
:1003A000264B5B6903F02003002B08D0234B5B69CD
:1003B000224A43F020035361214B5B6998471F4B4E
:1003C0005B6903F04003002B08D01C4B5B691B4AA0
:1003D00043F0400353611A4B9B699847174B5B6985
:1003E00003F08003002B08D0144B5B69134A43F0E1
:1003F00080035361124BDB699847104B5B6903F430
:100400008073002B08D00D4B5B690C4A43F480735A
:1004100053610B4B1B6A9847084B5B6903F40073ED
:10042000002B08D0054B5B69044A43F40073536109
:10043000034B5B6A984700BF80BD00BF00040140CA
:100440002C00002080B500AF2D4B5B6903F4806366
:10045000002B08D02A4B5B69294A43F4806353611F
:10046000284B9B6A9847264B5B6903F40063002B7B
:1004700008D0234B5B69224A43F400635361214B4C
:10048000DB6A98471E4B5B6903F48053002B08D04E
:100490001B4B5B691A4A43F480535361194B1B6B26
:1004A0009847174B5B6903F40053002B08D0144B9B
:1004B0005B69134A43F400535361124B5B6B9847DB
:1004C0000F4B5B6903F48043002B08D00C4B5B6936
:1004D0000B4A43F4804353610A4B9B6B9847084B8C
:1004E0005B6903F40043002B08D0054B5B69044AA9
:1004F00043F400435361034BDB6B984700BF80BD5F
:10050000000401402C00002080B483B000AF0346FB
:10051000FB80FB88802B42D0802B11DC082B36D04F
:10052000082B06DC022B2ED0042B2ED0012B28D03A
:1005300047E0202B2FD0402B2FD0102B29D040E08C
:10054000B3F5006F33D0B3F5006F09DCB3F5007F6E
:1005500029D0B3F5806F28D0B3F5807F21D030E06B
:10056000B3F5005F27D0B3F5005F03DCB3F5805F20
:100570001FD026E0B3F5804F1FD0B3F5004F1ED03B
:100580001FE000231EE004231CE008231AE00C23D4
:1005900018E0102316E0142314E0182312E01C23A3
:1005A00010E000230EE004230CE008230AE00C23F3
:1005B00008E0102306E0142304E0182302E01C23C3
:1005C00000E0002318460C37BD4680BC704790B54C
:1005D00085B000AF786039600023BB600023FB73F7
:1005E0003B681B88FF2B01D87B6801E07B680433E4
:1005F000BB603B681B881846FFF786FF03461A4618
:100600000F239340DA43BB681B681A40BB681A602B
:100610003B689B78072B0BD03B689B78062B07D059
:100620003B689B78052B03D03B689B78042B0ED14D
:100630003B689B78043B9B005AB23B68DB785BB21B
:1006400013435BB2DBB203F00F03FB732CE03B6898
:100650009B78012B03D03B689B78002B07D13B682C
:100660009B789B00DBB203F00F03FB731CE03B683D
:100670009B78082B02D10423FB7315E00823FB733E
:100680003B689B78022B07D17B68DB683A6812884D
:100690001A437B68DA6007E07B68DB683A68128897
:1006A000D2431A407B68DA60FC7B3B681B881846A3
:1006B000FFF72AFF034604FA03F2BB681B681A43DC
:1006C000BB681A6000BF1437BD4690BD80B483B0CC
:1006D00000AF78600B467B8013467B707B78002BE5
:1006E00003D07A887B681A6102E07A887B685A6155
:1006F00000BF0C37BD4680BC7047000080B400AF1F
:100700000A4B5B689B0803F00303012B06D0012B07
:1007100002D3022B04D005E0054B03E0054B01E0BA
:10072000044BFFE71846BD4680BC704700100240EE
:1007300000127A000024F40080B500AFFFF7DEFF5E
:100740000146054B5B681B0903F00F03034AD35CAA
:1007500021FA03F3184680BD001002404C0F000838
:1007600080B500AFFFF7E8FF0146054B5B681B0A49
:1007700003F00703034AD35C21FA03F3184680BD54
:1007800000100240440F000880B500AFFFF7D4FF0F
:100790000146054B5B68DB0A03F00703034AD35CA1
:1007A00021FA03F3184680BD00100240440F0008F0
:1007B00080B485B000AF786039600023FB810023EE
:1007C000BB817B683C4A934209D13C4A3B68136039
:1007D0003B4B9B693A4A43F4805393610CE07B683E
:1007E000384A934208D1354A3B685360344BDB6941
:1007F000334A43F48043D361FB8943F04003FB81D8
:100800003B681A88FB891343FB813B685A88FB8944
:100810001343FB813B689A88FB891343FB813B6848
:10082000DA88FB891343FB813B681A89FB891343F0
:10083000FB813B685A89FB891343FB813B689B8999
:10084000042B05D13B689A89BB891343BB8104E023
:100850003B689A89FB891343FB813B68DA89FB89F2
:100860001343FB813B681B8A002B19D03B681A8A13
:10087000BB891343BB817B680F4A934206D1124B5D
:100880001B68114A43F00803136009E07B680D4AB6
:10089000934205D10C4B1B680B4A43F010031360C5
:1008A000FA897B681A60BA897B685A6000BF14377E
:1008B000BD4680BC704700BF003001401C000020D6
:1008C000001002400038004004E100E080B485B030
:1008D00000AFF860B9601346FB71FB79012B06D1BC
:1008E00000BFFB689B6803F00203002BF9D0BB68D4
:1008F0001B881A46FB68DA60FB79012B06D100BF22
:10090000FB689B6803F00103002BF9D0FB68DB68F0
:100910009AB2BB681A8000BF1437BD4680BC7047CE
:1009200080B586B000AF78607B68734A934269D126
:10093000724B1B681B88042B34D1704B1B689B893E
:10094000042B0CD10623BB751023BB820123FB753E
:1009500007F1140319466A48FFF739FE00BF062362
:10096000BB752023BB820123FB7507F114031946D5
:100970006348FFF72CFE0123BB754023BB8207F1C0
:10098000140319465E48FFF722FE0623BB75802339
:10099000BB820123FB7507F1140319465848FFF782
:1009A00016FEA4E0554B1B689B89002B09D101233F
:1009B000BB751023BB8207F1140319465048FFF79B
:1009C00006FE0123BB752023BB8207F114031946E1
:1009D0004B48FFF7FCFD0623BB754023BB82012378
:1009E000FB7507F1140319464548FFF7F0FD012395
:1009F000BB7480233B8207F1100319464048FFF780
:100A0000E6FD74E07B683F4A934270D13B4B5B68E4
:100A10001B88042B38D1394B1B689B89042B0DD1C3
:100A20000623BB754FF48053BB820123FB7507F18E
:100A3000140319463448FFF7CAFD00BF0623BB75EF
:100A40004FF40053BB820123FB7507F114031946D1
:100A50002D48FFF7BCFD0123BB754FF48043BB82DB
:100A600007F1140319462848FFF7B1FD0623BB75AB
:100A70004FF40043BB820123FB7507F114031946B1
:100A80002148FFF7A4FD32E01C4B1B689B89002B1B
:100A90000AD10123BB754FF48053BB8207F11403C5
:100AA00019461948FFF793FD0123BB754FF4005316
:100AB000BB8207F1140319461348FFF788FD06238C
:100AC000BB754FF48043BB820123FB7507F1140310
:100AD00019460D48FFF77BFD0123BB734FF400431C
:100AE000BB8107F10C0319460748FFF770FD00BFF3
:100AF0001837BD4680BD00BF003001401C000020FB
:100B00000008014000380040000C014080B582B070
:100B100000AF134B9B685B0803F00103DAB23B792B
:100B200062F300033B710E4B9B6803F00103DAB2E2
:100B30003B7962F341033B71094B9B681B0903F04E
:100B40000103DAB23B7962F382033B71054B1B6808
:100B50005B693879984700BF0837BD4680BD00BF44
:100B6000003001401C00002080B582B000AF134B64
:100B70009B685B0803F00103DAB23B7962F3000380
:100B80003B710E4B9B6803F00103DAB23B7962F3D1
:100B900041033B71094B9B681B0903F00103DAB267
:100BA0003B7962F382033B71054B5B685B69387983
:100BB000984700BF0837BD4680BD00BF00380040E1
:100BC0001C00002080B584B000AF78603960574ABF
:100BD0003B6813607B68564A934206D1554B9B692C
:100BE000544A43F48043936114E07B68524A934231
:100BF00006D1504BDB694F4A43F40033D36109E01F
:100C00007B684E4A934205D14A4BDB69494A43F41B
:100C10008023D3617B68DB6843F400527B68DA6031
:100C20007B68DB683A6812781A437B68DA607B6815
:100C3000DB683A68127A1A437B68DA607B68DB68A3
:100C40003A68527A1A437B68DA607B681B693A68B3
:100C5000927A1A437B681A617B685B693A68D27A38
:100C60001A437B685A617B68314A934203D1FFF78C
:100C70008BFDF86002E0FFF773FDF8603B685B688E
:100C80001B01FA68B2FBF3F31901FA6813469B00E3
:100C900013449A001A443B685B689B00B2FBF3F272
:100CA0003B685B681B01F868B0FBF3F3642000FB52
:100CB00003F3D31A1B01224AA2FB03235B0903F0AF
:100CC0000F030B43BB607B68BA689A603B681B7B71
:100CD000002B26D07B68DB683A68127B1A437B685E
:100CE000DA607B68124A934206D1164B1B68154A9C
:100CF00043F02003136014E07B680F4A934206D14F
:100D0000104B1B680F4A43F04003136009E07B68F7
:100D10000A4A934205D10B4B1B680A4A43F08003F1
:100D2000136000BF1037BD4680BD00BF2400002007
:100D300000380140001002400044004000480040DC
:100D40001F85EB5104E100E080B485B000AFF8608E
:100D5000B9601346FB71FB79012B06D100BFFB681C
:100D60001B6803F08003002BF9D0BB681B88DAB244
:100D7000FB685A6000BF1437BD4680BC7047000056
:100D800080B485B000AFF860B9601346FB71FB79A1
:100D9000012B06D100BFFB681B6803F02003002B6A
:100DA000F9D00D4B1B685B7A002B07D1FB685B68A1
:100DB0009BB2DBB29AB2BB681A8007E0FB685B6843
:100DC0009BB203F07F039AB2BB681A8000BF14374E
:100DD000BD4680BC704700BF2400002080B584B0B1
:100DE00000AF78607B682B4A934218D14FF40073B0
:100DF000BB810623BB730123FB7307F10C03194668
:100E00002548FFF7E4FB4FF48063BB810823BB73E5
:100E100007F10C0319462048FFF7D9FB36E07B6841
:100E20001E4A934216D10423BB810623BB730123C0
:100E3000FB7307F10C0319461748FFF7C8FB08239B
:100E4000BB810823BB7307F10C0319461248FFF757
:100E5000BEFB1BE07B68124A934217D14FF48063BC
:100E6000BB810623BB730123FB7307F10C031946F7
:100E70000C48FFF7ACFB4FF40063BB810823BB7346
:100E800007F10C0319460748FFF7A1FB00BF103715
:100E9000BD4680BD003801400008014000440040CC
:100EA00000480040000C014080B500AF024B1B68B9
:100EB0001B69984700BF80BD2400002080B500AFAB
:100EC000024B1B681B69984700BF80BD24000020AF
:100ED00080B500AF024B1B681B69984700BF80BDFF
:100EE0002400002070B500250C4E0D4CA41BA4104E
:100EF000A54209D100F01AF800250A4E0A4CA41B9D
:100F0000A410A54205D170BD56F82530984701358B
:100F1000EEE756F8253098470135F2E75C0F0008F8
:100F20005C0F00085C0F0008600F0008F8B500BFF8
:100F3000F8BC08BC9E467047F8B500BFF8BC08BCBA
:040F40009E46704712
:100F44000000000001020304000000000000000093
:080F540001020304060708096D
:040F5C005501000833
:040F60003101000853
:040000050800029558
:00000001FF
