:020000040800F2
:1000000000280020D10B0008210C00081D02000868
:1000100023020008290200082F0200080000000047
:100020000000000000000000000000003502000891
:10003000210C0008000000004906000889020008A1
:10004000210C0008210C0008210C0008210C0008DC
:10005000210C0008210C0008250C0008490C0008A0
:100060006D0C0008910C0008B50C0008210C00086C
:10007000210C0008210C0008210C0008210C0008AC
:10008000210C0008210C0008210C0008210C00089C
:10009000210C0008210C0008210C0008D90C0008D4
:1000A000210C0008210C0008210C0008210C00087C
:1000B000210C0008210C0008210C0008210C00086C
:1000C000210C0008210C0008210C0008210C00085C
:1000D000210C0008210C0008210C0008210C00084C
:1000E000810D0008210C000800000000210C000810
:1000F000210C0008210C0008210C0008210C00082C
:10010000210C0008210C0008210C0008210C00081B
:10011000210C0008210C0008210C0008210C00080B
:10012000210C0008210C0008210C0008210C0008FB
:1001300010B5054C237833B9044B13B10448AFF321
:1001400000800123237010BD00000020000000008B
:100150008C0E000808B5034B1BB103490348AFF3ED
:10016000008008BD00000000040000208C0E000884
:1001700010F8012B11F8013B012A28BF9A42F7D051
:10018000D01A704780B483B000AF03463960FB716A
:1001900097F90730002B0ADB3B68DAB20C4997F974
:1001A00007305201D2B20B4483F800230AE03B68C7
:1001B000DAB20849FB7903F00F03043B5201D2B2D3
:1001C0000B441A7600BF0C37BD4680BC704700BF99
:1001D00000E100E000ED00E080B582B000AF7860A3
:1001E0007B68013BB3F1807F01D301230FE00A4A12
:1001F0007B68013B536007214FF0FF30FFF7C2FFE0
:10020000054B00229A60044B07221A60002318460F
:100210000837BD4680BD00BF10E000E080B400AFED
:10022000FEE780B400AFFEE780B400AFFEE780B425
:1002300000AFFEE71EF0040F0CBFEFF30880EFF3F2
:10024000098000F0D1B900BF80B400AF044B5B68F7
:10025000034A43F08053536000BFBD4680BC7047E3
:1002600000ED00E080B500AF0F216FF00100FFF757
:1002700089FF00BF80BD80B500AF4FF4FA50FFF793
:10028000ABFF00BF80BD000080B500AF064B1B7800
:1002900083F00103DAB2044B1A7000F055F9FFF74E
:1002A000D3FF00BF80BD00BF1C00002080B485B01C
:1002B00000AFF860B9607A60BB68002B01D10323FE
:1002C00011E0FB68BA68DA60FB68DA68FB685A60BC
:1002D000FB68DA68FB689A60FB687A681A61FB68F9
:1002E00000221A60002318461437BD4680BC7047B0
:1002F00080B483B000AF786039607B68DB68002B26
:1003000003D07B681B69002B01D103232CE07B68A1
:100310005A687B689B689A4207D17B681A687B6839
:100320001B699A4201D101231EE07B689B683A68F1
:100330001A607B681B685A1C7B681A607B689B6824
:100340007A68D26811467A68126992000A44934228
:1003500004D17B68DA687B689A6004E07B689B68FC
:100360001A1D7B689A60002318460C37BD4680BC76
:10037000704780B483B000AF786039607B68DB6819
:10038000002B03D07B681B69002B01D1032327E0DE
:100390007B685A687B689B689A4201D102231FE000
:1003A0007B685B681A683B681A607B681B685A1E2A
:1003B0007B681A607B685B687A68D26811467A68E5
:1003C000126992000A44934204D17B68DA687B6820
:1003D0005A6004E07B685B681A1D7B685A600023E2
:1003E00018460C37BD4680BC7047000080B485B00D
:1003F00000AF214BD3F89C317B600023FB6030E0E1
:100400000023BB6023E01C4ABB6852F823301A79F2
:10041000BB680133184951F823301B799A4213D92C
:10042000154ABB6852F823303B60BB680133124A5F
:1004300052F823201049BB6841F82320BB680133E0
:100440000D493A6841F82320BB680133BB607A68E4
:10045000FB68D31A013BBA689A42D4D3FB680133D4
:10046000FB607B68013BFA689A42C9D300BF14372E
:10047000BD4680BC704700BFB401002080B584B089
:1004800000AF00233B600023BB6000237B600023A0
:10049000FB60FFF7ABFF00BF3B4619462848FFF75C
:1004A00068FF0346022BF7D13DE0264AFB6852F86D
:1004B0002330BB60FB680133224A52F823307B6053
:1004C000BB6893F83630002B2AD07B6893F836301F
:1004D000002B08D1B9681A48FFF70AFFBB6802224F
:1004E00083F8362027E0BB681A797B681B799A422B
:1004F00008D2B9681248FFF7FBFEBB68022283F8F6
:10050000362018E0BB681A797B681B799A4211D1B2
:10051000B9680B48FFF7ECFEBB68022283F836206F
:10052000FB680133FB60074BD3F89C21FB689A42C0
:10053000BBD800E000BF00BF1037BD4680BD00BF84
:1005400060030020B401002080B500AF234B1B687E
:10055000002B1AD1224BD3F8A03193F83630002B60
:1005600013D01F4BD3F8A031032283F836201C4B45
:10057000D3F8A03119461948FFF7BAFE184BD3F843
:10058000A031174AC2F8A43125E016491348FFF7F5
:10059000F0FE134BD3F8A431032283F83620104B1E
:1005A000D3F8A0311A790E4BD3F8A4311B799A42B3
:1005B00011D10B4BD3F8A031002B0CD0084BD3F842
:1005C000A03119460548FFF793FE054BD3F8A0313B
:1005D000022283F8362000BF80BD00BF60030020E8
:1005E000B40100205803002080B584B000AF7860CB
:1005F0007B6818331B68023B1B78FB73FB7B002B6B
:100600001ADB012B01DD022B16E0FFF737FF0C4B45
:1006100093F8A831012B0ED1094BD3F8A031183330
:1006200008491846FFF7A4FD0346002B03D0FFF747
:100630008BFFFFF709FE00BF00BF1037BD4680BD2E
:10064000B4010020A40E00086C4BD3F8A031EFF3E6
:10065000098002465A61694BD3F8A0315A69043ABD
:100660005A61664BD3F8A0315B6922461A60634B2E
:10067000D3F8A0315A69043A5A61604BD3F8A031DB
:100680005B692A461A605D4BD3F8A0315A69043A77
:100690005A615A4BD3F8A0315B6932461A60574B06
:1006A000D3F8A0315A69043A5A61544BD3F8A031B7
:1006B0005B693A461A60514BD3F8A0315A69043A43
:1006C0005A614E4BD3F8A0315B6942461A604B4BDE
:1006D000D3F8A0315A69043A5A61484BD3F8A03193
:1006E0005B694A461A60454BD3F8A0315A69043A0F
:1006F0005A61424BD3F8A0315B6952461A603F4BB6
:10070000D3F8A0315A69043A5A613C4BD3F8A0316E
:100710005B695A461A60394BD3F8A431374AC2F89C
:10072000A031364B0022C3F8A421344BD3F8A031BA
:100730005B691B689B46314BD3F8A0315A69043280
:100740005A612E4BD3F8A0315B691B689A462B4B3C
:10075000D3F8A0315A6904325A61284BD3F8A0313A
:100760005B691B689946254BD3F8A0315A6904325E
:100770005A61224BD3F8A0315B691B6898461F4B26
:10078000D3F8A0315A6904325A611C4BD3F8A03116
:100790005B691B681F46194BD3F8A0315A690432B4
:1007A0005A61164BD3F8A0315B691B681E46134B88
:1007B000D3F8A0315A6904325A61104BD3F8A031F2
:1007C0005B691B681D460D4BD3F8A0315A69043292
:1007D0005A610A4BD3F8A0315B691B681C46074B72
:1007E000D3F8A0315A6904325A61044BD3F8A031CE
:1007F0005B69184680F30988704700BFB401002088
:1008000080B400AF0B4A0C4BC3F890210A4BD3F8CD
:100810009031A3F50063084AC2F89431064BD3F82F
:100820009431083B044AC2F8983100BFBD4680BCF1
:10083000704700BF00280020B401002080B400AF42
:10084000044B1B7883F00103DAB2024B1A7000BF2D
:10085000F6E700BF2000002080B582B000AF002383
:10086000FB71164B002283F8A821FFF7C9FF642211
:1008700013491448FFF71AFD0346002B02D0FB79F9
:100880000133FB71104B114A07CA03C31A70104B96
:10089000FF221A710E4B0F4A9A600D4B4FF496725D
:1008A0001A600B4800F056F803461A46FB791344C9
:1008B000FB71FB7918460837BD4680BDB4010020A6
:1008C00024000020600300208C030020A40E0008F8
:1008D000740300203D08000880B485B000AF786044
:1008E0007B68DB681A467B685A617B685B691A1F04
:1008F0007B685A617B685B694FF080721A607B6825
:100900005B691A1F7B685A617B689A687B685B69C0
:100910001A607B685B691A1F7B685A617B685B6938
:100920006FF002021A600023FB600BE07B685B69DA
:100930001A1F7B685A617B685B6900221A60FB683A
:100940000133FB60FB680C2BF0DD00BF1437BD46A4
:1009500080BC704780B584B000AF78600023FB7323
:10096000194BD3F898217B68DA607B68DA687B687A
:100970001B68D21A7B681A617B681B69134AD2B262
:10098000934201D202231BE07B681B69083B0E4A9D
:10099000C2F898317868FFF79FFF0B4BD3F89C3172
:1009A00009497A6841F82320074BD3F89C31013379
:1009B000054AC2F89C317B68002283F83620FB7B15
:1009C00018461037BD4680BDB4010020B80600208F
:1009D00080B483B000AF0346FB71FB79012B06D0D6
:1009E000022B06D0002B00D005E000DF03E001DF82
:1009F00001E002DF00BF00BF0C37BD4680BC70477E
:100A000080B584B000AF78600023FB737B6801225F
:100A100083F836200020FFF7DBFFFB7B18461037FA
:100A2000BD4680BD80B500AF124B012283F8A821DE
:100A3000104B114AC3F8A0210F48FFF7E1FFFFF761
:100A40001AFC0C4BD3F8A0315B69184680F3098877
:100A5000EFF3148040F0020080F31488EFF3148366
:100A600043F0010383F31488034B9B68984700BF4E
:100A700080BD00BFB40100207403002080B400AF2B
:100A8000034B1B7883F00103DAB2014B1A70F7E7CE
:100A9000B503002080B400AF034B1B7883F0010343
:100AA000DAB2014B1A70F7E7B403002080B400AF4C
:100AB000034B1B7883F00103DAB2014B1A70F7E79E
:100AC0003804002080B582B000AF0023FB71FFF72F
:100AD000C9FBFFF7C1FE0346002B00D0FEE7304BF9
:100AE0004FF480621A602E4B2E4A9A602C4B0322E0
:100AF0001A712D4B2D4A92E80300186004331980B7
:100B000002330A0C1A702A4B4FF480621A60284B89
:100B1000284A9A60264B03221A71274B274A92E8EB
:100B2000030018600433198002330A0C1A70244B36
:100B30004FF480621A60224B224A9A60204B0322B3
:100B40001A71214B214A92E803001860043319807E
:100B500002330A0C1A701248FFF7FCFE03461A46CD
:100B6000FB791344FB711248FFF7F4FE03461A4663
:100B7000FB791344FB711248FFF7ECFE03461A465B
:100B8000FB791344FB710648FFF73AFF0848FFF76B
:100B900037FF0B48FFF734FFFFF744FFFEE700BFC6
:100BA000B80300207D0A0008D0030020B00E000822
:100BB0003C040020950A000854040020B80E0008E8
:100BC000F8030020AD0A000810040020C00E000841
:100BD0000D488546AFF300800C480D490D4A0023AF
:100BE00002E0D458C4500433C4188C42F9D30A4AE2
:100BF0000A4C002301E013600432A242FBD300F050
:100C000021F9FFF75FFFFEE7002800200000002029
:100C100000000020D00E000800000020B8040020D2
:100C2000FEE7000080B500AF054B5B69044A43F066
:100C300001035361034B1B68984700BF80BD00BF91
:100C4000000401407C04002080B500AF054B5B69C7
:100C5000044A43F002035361034B5B68984700BFAB
:100C600080BD00BF000401407C04002080B500AFBF
:100C7000054B5B69044A43F004035361034B9B68D3
:100C8000984700BF80BD00BF000401407C040020E5
:100C900080B500AF054B5B69044A43F0080353611C
:100CA000034BDB68984700BF80BD00BF00040140D4
:100CB0007C04002080B500AF054B5B69044A43F01B
:100CC00010035361034B1B69984700BF80BD00BFF1
:100CD000000401407C04002080B500AF264B5B6916
:100CE00003F02003002B08D0234B5B69224A43F01A
:100CF00020035361214B5B6998471F4B5B6903F0ED
:100D00004003002B08D01C4B5B691B4A43F0400397
:100D100053611A4B9B699847174B5B6903F080033B
:100D2000002B08D0144B5B69134A43F080035361D6
:100D3000124BDB699847104B5B6903F48073002BFF
:100D400008D00D4B5B690C4A43F4807353610B4B25
:100D50001B6A9847084B5B6903F40073002B08D0AB
:100D6000054B5B69044A43F400735361034B5B6AB0
:100D7000984700BF80BD00BF000401407C040020F4
:100D800080B500AF2D4B5B6903F48063002B08D066
:100D90002A4B5B69294A43F480635361284B9B6A61
:100DA0009847264B5B6903F40063002B08D0234B64
:100DB0005B69224A43F400635361214BDB6A984725
:100DC0001E4B5B6903F48053002B08D01B4B5B69FF
:100DD0001A4A43F480535361194B1B6B9847174BC6
:100DE0005B6903F40053002B08D0144B5B69134A72
:100DF00043F400535361124B5B6B98470F4B5B6995
:100E000003F48043002B08D00C4B5B690B4A43F47E
:100E1000804353610A4B9B6B9847084B5B6903F413
:100E20000043002B08D0054B5B69044A43F40043A0
:100E30005361034BDB6B984700BF80BD000401404A
:100E40007C04002070B500250C4E0D4CA41BA41092
:100E5000A54209D100F01AF800250A4E0A4CA41B3D
:100E6000A410A54205D170BD56F82530984701352C
:100E7000EEE756F8253098470135F2E7C80E00082E
:100E8000C80E0008C80E0008CC0E0008F8B500BF58
:100E9000F8BC08BC9E467047F8B500BFF8BC08BC5B
:040EA0009E467047B3
:100EA40069646C655461736B000000007461736B5A
:100EB4005F3100007461736B5F3200007461736BA7
:040EC4005F33000098
:040EC80055010008C8
:040ECC0031010008E8
:0400000508000BD113
:00000001FF
